{
  "_format": "hh-sol-artifact-1",
  "contractName": "KAPMReservoir",
  "sourceName": "contracts/KAPMReservoir.sol",
  "abi": [
    {
      "constant": false,
      "inputs": [
        {
          "name": "sender",
          "type": "address"
        },
        {
          "name": "fromChainId",
          "type": "uint256"
        },
        {
          "name": "receiver",
          "type": "address"
        },
        {
          "name": "amount",
          "type": "uint256"
        },
        {
          "name": "sendingId",
          "type": "uint256"
        },
        {
          "name": "isFeePayed",
          "type": "bool"
        },
        {
          "name": "nft",
          "type": "address"
        },
        {
          "name": "vs",
          "type": "uint8[]"
        },
        {
          "name": "rs",
          "type": "bytes32[]"
        },
        {
          "name": "ss",
          "type": "bytes32[]"
        }
      ],
      "name": "receiveToken",
      "outputs": [],
      "payable": false,
      "stateMutability": "nonpayable",
      "type": "function"
    },
    {
      "constant": true,
      "inputs": [],
      "name": "quorum",
      "outputs": [
        {
          "name": "",
          "type": "uint256"
        }
      ],
      "payable": false,
      "stateMutability": "view",
      "type": "function"
    },
    {
      "constant": true,
      "inputs": [
        {
          "name": "",
          "type": "address"
        }
      ],
      "name": "signerIndex",
      "outputs": [
        {
          "name": "",
          "type": "uint256"
        }
      ],
      "payable": false,
      "stateMutability": "view",
      "type": "function"
    },
    {
      "constant": true,
      "inputs": [
        {
          "name": "",
          "type": "uint256"
        }
      ],
      "name": "signers",
      "outputs": [
        {
          "name": "",
          "type": "address"
        }
      ],
      "payable": false,
      "stateMutability": "view",
      "type": "function"
    },
    {
      "constant": true,
      "inputs": [],
      "name": "signersLength",
      "outputs": [
        {
          "name": "",
          "type": "uint256"
        }
      ],
      "payable": false,
      "stateMutability": "view",
      "type": "function"
    },
    {
      "constant": false,
      "inputs": [
        {
          "name": "signer",
          "type": "address"
        },
        {
          "name": "vs",
          "type": "uint8[]"
        },
        {
          "name": "rs",
          "type": "bytes32[]"
        },
        {
          "name": "ss",
          "type": "bytes32[]"
        }
      ],
      "name": "addSigner",
      "outputs": [],
      "payable": false,
      "stateMutability": "nonpayable",
      "type": "function"
    },
    {
      "constant": true,
      "inputs": [
        {
          "name": "sender",
          "type": "address"
        },
        {
          "name": "toChainId",
          "type": "uint256"
        },
        {
          "name": "receiver",
          "type": "address"
        }
      ],
      "name": "sendingCounts",
      "outputs": [
        {
          "name": "",
          "type": "uint256"
        }
      ],
      "payable": false,
      "stateMutability": "view",
      "type": "function"
    },
    {
      "constant": true,
      "inputs": [
        {
          "name": "",
          "type": "address"
        },
        {
          "name": "",
          "type": "uint256"
        },
        {
          "name": "",
          "type": "address"
        },
        {
          "name": "",
          "type": "uint256"
        }
      ],
      "name": "sendingData",
      "outputs": [
        {
          "name": "sendedAmount",
          "type": "uint256"
        },
        {
          "name": "sendingBlock",
          "type": "uint256"
        }
      ],
      "payable": false,
      "stateMutability": "view",
      "type": "function"
    },
    {
      "constant": false,
      "inputs": [
        {
          "name": "newDB",
          "type": "address"
        }
      ],
      "name": "updateFeeDB",
      "outputs": [],
      "payable": false,
      "stateMutability": "nonpayable",
      "type": "function"
    },
    {
      "constant": true,
      "inputs": [],
      "name": "feeDB",
      "outputs": [
        {
          "name": "",
          "type": "address"
        }
      ],
      "payable": false,
      "stateMutability": "view",
      "type": "function"
    },
    {
      "constant": false,
      "inputs": [],
      "name": "renounceOwnership",
      "outputs": [],
      "payable": false,
      "stateMutability": "nonpayable",
      "type": "function"
    },
    {
      "constant": false,
      "inputs": [
        {
          "name": "newQuorum",
          "type": "uint256"
        },
        {
          "name": "vs",
          "type": "uint8[]"
        },
        {
          "name": "rs",
          "type": "bytes32[]"
        },
        {
          "name": "ss",
          "type": "bytes32[]"
        }
      ],
      "name": "updateQuorum",
      "outputs": [],
      "payable": false,
      "stateMutability": "nonpayable",
      "type": "function"
    },
    {
      "constant": true,
      "inputs": [
        {
          "name": "signer",
          "type": "address"
        }
      ],
      "name": "isSigner",
      "outputs": [
        {
          "name": "",
          "type": "bool"
        }
      ],
      "payable": false,
      "stateMutability": "view",
      "type": "function"
    },
    {
      "constant": false,
      "inputs": [
        {
          "name": "signer",
          "type": "address"
        },
        {
          "name": "vs",
          "type": "uint8[]"
        },
        {
          "name": "rs",
          "type": "bytes32[]"
        },
        {
          "name": "ss",
          "type": "bytes32[]"
        }
      ],
      "name": "removeSigner",
      "outputs": [],
      "payable": false,
      "stateMutability": "nonpayable",
      "type": "function"
    },
    {
      "constant": true,
      "inputs": [],
      "name": "signingNonce",
      "outputs": [
        {
          "name": "",
          "type": "uint256"
        }
      ],
      "payable": false,
      "stateMutability": "view",
      "type": "function"
    },
    {
      "constant": true,
      "inputs": [],
      "name": "owner",
      "outputs": [
        {
          "name": "",
          "type": "address"
        }
      ],
      "payable": false,
      "stateMutability": "view",
      "type": "function"
    },
    {
      "constant": true,
      "inputs": [],
      "name": "isOwner",
      "outputs": [
        {
          "name": "",
          "type": "bool"
        }
      ],
      "payable": false,
      "stateMutability": "view",
      "type": "function"
    },
    {
      "constant": false,
      "inputs": [
        {
          "name": "toChainId",
          "type": "uint256"
        },
        {
          "name": "receiver",
          "type": "address"
        },
        {
          "name": "amount",
          "type": "uint256"
        },
        {
          "name": "nft",
          "type": "address"
        }
      ],
      "name": "sendToken",
      "outputs": [
        {
          "name": "sendingId",
          "type": "uint256"
        }
      ],
      "payable": false,
      "stateMutability": "nonpayable",
      "type": "function"
    },
    {
      "constant": true,
      "inputs": [
        {
          "name": "",
          "type": "address"
        },
        {
          "name": "",
          "type": "uint256"
        },
        {
          "name": "",
          "type": "address"
        },
        {
          "name": "",
          "type": "uint256"
        }
      ],
      "name": "isTokenReceived",
      "outputs": [
        {
          "name": "",
          "type": "bool"
        }
      ],
      "payable": false,
      "stateMutability": "view",
      "type": "function"
    },
    {
      "constant": false,
      "inputs": [
        {
          "name": "newOwner",
          "type": "address"
        }
      ],
      "name": "transferOwnership",
      "outputs": [],
      "payable": false,
      "stateMutability": "nonpayable",
      "type": "function"
    },
    {
      "constant": true,
      "inputs": [],
      "name": "token",
      "outputs": [
        {
          "name": "",
          "type": "address"
        }
      ],
      "payable": false,
      "stateMutability": "view",
      "type": "function"
    },
    {
      "inputs": [
        {
          "name": "_token",
          "type": "address"
        },
        {
          "name": "_quorum",
          "type": "uint256"
        },
        {
          "name": "_signers",
          "type": "address[]"
        }
      ],
      "payable": false,
      "stateMutability": "nonpayable",
      "type": "constructor"
    },
    {
      "anonymous": false,
      "inputs": [
        {
          "indexed": false,
          "name": "signer",
          "type": "address"
        }
      ],
      "name": "AddSigner",
      "type": "event"
    },
    {
      "anonymous": false,
      "inputs": [
        {
          "indexed": false,
          "name": "signer",
          "type": "address"
        }
      ],
      "name": "RemoveSigner",
      "type": "event"
    },
    {
      "anonymous": false,
      "inputs": [
        {
          "indexed": false,
          "name": "newFeeDB",
          "type": "address"
        }
      ],
      "name": "UpdateFeeDB",
      "type": "event"
    },
    {
      "anonymous": false,
      "inputs": [
        {
          "indexed": false,
          "name": "newQuorum",
          "type": "uint256"
        }
      ],
      "name": "UpdateQuorum",
      "type": "event"
    },
    {
      "anonymous": false,
      "inputs": [
        {
          "indexed": true,
          "name": "sender",
          "type": "address"
        },
        {
          "indexed": true,
          "name": "toChainId",
          "type": "uint256"
        },
        {
          "indexed": true,
          "name": "receiver",
          "type": "address"
        },
        {
          "indexed": false,
          "name": "amount",
          "type": "uint256"
        },
        {
          "indexed": false,
          "name": "sendingId",
          "type": "uint256"
        },
        {
          "indexed": false,
          "name": "isFeeCollected",
          "type": "bool"
        }
      ],
      "name": "SendToken",
      "type": "event"
    },
    {
      "anonymous": false,
      "inputs": [
        {
          "indexed": true,
          "name": "sender",
          "type": "address"
        },
        {
          "indexed": true,
          "name": "fromChainId",
          "type": "uint256"
        },
        {
          "indexed": true,
          "name": "receiver",
          "type": "address"
        },
        {
          "indexed": false,
          "name": "amount",
          "type": "uint256"
        },
        {
          "indexed": false,
          "name": "sendingId",
          "type": "uint256"
        }
      ],
      "name": "ReceiveToken",
      "type": "event"
    },
    {
      "anonymous": false,
      "inputs": [
        {
          "indexed": true,
          "name": "previousOwner",
          "type": "address"
        },
        {
          "indexed": true,
          "name": "newOwner",
          "type": "address"
        }
      ],
      "name": "OwnershipTransferred",
      "type": "event"
    }
  ],
  "bytecode": "0x60806040523480156200001157600080fd5b506040516200207238038062002072833981018060405260608110156200003757600080fd5b81516020830151604084018051929491938201926401000000008111156200005e57600080fd5b820160208101848111156200007257600080fd5b81518560208202830111640100000000821117156200009057600080fd5b5050600080546001600160a01b03191633178082556040519295506001600160a01b0316935091507f8be0079c531659141344cd1fd0a4f28419497f9722a3daafe3b4186f6b6457e0908290a36001600160a01b038316620000f157600080fd5b600680546001600160a01b0319166001600160a01b038516179055816200011757600080fd5b60048290556040805183815290517f5cb3f38de4dd795897ed02809e482378027c600f566d6e4bd14dfe3a44a6d7379181900360200190a181815110156200015e57600080fd5b8051620001739060019060208401906200027f565b5060005b8151811015620002755760008282815181106200019057fe5b6020026020010151905060006001600160a01b0316816001600160a01b03161415620001bb57600080fd5b6001600160a01b03811660009081526002602052604090205415620001df57600080fd5b81156200021b5782600081518110620001f457fe5b60200260200101516001600160a01b0316816001600160a01b031614156200021b57600080fd5b6001600160a01b038116600081815260026020908152604091829020859055815192835290517f637c77a2d598a51d085d4a2413332c45a235a25ee855bf3dfcdc2c8fcf02860f9281900390910190a15060010162000177565b5050505062000313565b828054828255906000526020600020908101928215620002d7579160200282015b82811115620002d757825182546001600160a01b0319166001600160a01b03909116178255602090920191600190910190620002a0565b50620002e5929150620002e9565b5090565b6200031091905b80821115620002e55780546001600160a01b0319168155600101620002f0565b90565b611d4f80620003236000396000f3fe608060405234801561001057600080fd5b50600436106101375760003560e01c8063715018a6116100b85780638da5cb5b1161007c5780638da5cb5b146109b75780638f32d59b146109bf578063b707f841146109c7578063d14f36f114610a03578063f2fde38b14610a3d578063fc0c546a14610a6357610137565b8063715018a61461060c578063779780ea146106145780637df73e27146107c05780638053f79c146107fa57806382ac4168146109af57610137565b8063479e517d116100ff578063479e517d146103a0578063488c3f5e146105555780634d74ce2e1461058b5780635ecdf245146105de5780636b3f599b1461060457610137565b806315b510581461013c5780631703a0181461031f5780631a91a0ab146103395780632079fb9a1461035f57806341f684f314610398575b600080fd5b61031d600480360361014081101561015357600080fd5b6001600160a01b038235811692602081013592604082013583169260608301359260808101359260a082013515159260c0830135169190810190610100810160e0820135600160201b8111156101a857600080fd5b8201836020820111156101ba57600080fd5b803590602001918460208302840111600160201b831117156101db57600080fd5b9190808060200260200160405190810160405280939291908181526020018383602002808284376000920191909152509295949360208101935035915050600160201b81111561022a57600080fd5b82018360208201111561023c57600080fd5b803590602001918460208302840111600160201b8311171561025d57600080fd5b9190808060200260200160405190810160405280939291908181526020018383602002808284376000920191909152509295949360208101935035915050600160201b8111156102ac57600080fd5b8201836020820111156102be57600080fd5b803590602001918460208302840111600160201b831117156102df57600080fd5b919080806020026020016040519081016040528093929190818152602001838360200280828437600092019190915250929550610a6b945050505050565b005b610327610c1b565b60408051918252519081900360200190f35b6103276004803603602081101561034f57600080fd5b50356001600160a01b0316610c21565b61037c6004803603602081101561037557600080fd5b5035610c33565b604080516001600160a01b039092168252519081900360200190f35b610327610c5a565b61031d600480360360808110156103b657600080fd5b6001600160a01b038235169190810190604081016020820135600160201b8111156103e057600080fd5b8201836020820111156103f257600080fd5b803590602001918460208302840111600160201b8311171561041357600080fd5b9190808060200260200160405190810160405280939291908181526020018383602002808284376000920191909152509295949360208101935035915050600160201b81111561046257600080fd5b82018360208201111561047457600080fd5b803590602001918460208302840111600160201b8311171561049557600080fd5b9190808060200260200160405190810160405280939291908181526020018383602002808284376000920191909152509295949360208101935035915050600160201b8111156104e457600080fd5b8201836020820111156104f657600080fd5b803590602001918460208302840111600160201b8311171561051757600080fd5b919080806020026020016040519081016040528093929190818152602001838360200280828437600092019190915250929550610c61945050505050565b6103276004803603606081101561056b57600080fd5b506001600160a01b03813581169160208101359160409091013516610dc7565b6105c5600480360360808110156105a157600080fd5b506001600160a01b0381358116916020810135916040820135169060600135610dfa565b6040805192835260208301919091528051918290030190f35b61031d600480360360208110156105f457600080fd5b50356001600160a01b0316610e4e565b61037c610efe565b61031d610f0d565b61031d6004803603608081101561062a57600080fd5b81359190810190604081016020820135600160201b81111561064b57600080fd5b82018360208201111561065d57600080fd5b803590602001918460208302840111600160201b8311171561067e57600080fd5b9190808060200260200160405190810160405280939291908181526020018383602002808284376000920191909152509295949360208101935035915050600160201b8111156106cd57600080fd5b8201836020820111156106df57600080fd5b803590602001918460208302840111600160201b8311171561070057600080fd5b9190808060200260200160405190810160405280939291908181526020018383602002808284376000920191909152509295949360208101935035915050600160201b81111561074f57600080fd5b82018360208201111561076157600080fd5b803590602001918460208302840111600160201b8311171561078257600080fd5b919080806020026020016040519081016040528093929190818152602001838360200280828437600092019190915250929550610fb3945050505050565b6107e6600480360360208110156107d657600080fd5b50356001600160a01b03166110b1565b604080519115158252519081900360200190f35b61031d6004803603608081101561081057600080fd5b6001600160a01b038235169190810190604081016020820135600160201b81111561083a57600080fd5b82018360208201111561084c57600080fd5b803590602001918460208302840111600160201b8311171561086d57600080fd5b9190808060200260200160405190810160405280939291908181526020018383602002808284376000920191909152509295949360208101935035915050600160201b8111156108bc57600080fd5b8201836020820111156108ce57600080fd5b803590602001918460208302840111600160201b831117156108ef57600080fd5b9190808060200260200160405190810160405280939291908181526020018383602002808284376000920191909152509295949360208101935035915050600160201b81111561093e57600080fd5b82018360208201111561095057600080fd5b803590602001918460208302840111600160201b8311171561097157600080fd5b919080806020026020016040519081016040528093929190818152602001838360200280828437600092019190915250929550611107945050505050565b61032761130a565b61037c611310565b6107e661131f565b610327600480360360808110156109dd57600080fd5b508035906001600160a01b03602082013581169160408101359160609091013516611330565b6107e660048036036080811015610a1957600080fd5b506001600160a01b038135811691602081013591604082013516906060013561146e565b61031d60048036036020811015610a5357600080fd5b50356001600160a01b031661149d565b61037c611505565b6001600160a01b03808b1660009081526008602090815260408083208d84528252808320938c1683529281528282208983529052205460ff1615610aae57600080fd5b6000898b610aba611514565b604080516020808201959095526001600160a01b03938416606090811b828401526054820193909352838e16831b6074820152608881018d905260a881018c90528a151560f81b60c882015292891690911b60c9830152805160bd81840301815260dd83018252805190840120600080516020611d0483398151915260fd8401526101198084018290528251808503909101815261013990930190915281519190920120909150610b6d8186868661151a565b6001600160a01b03808d1660009081526008602090815260408083208f84528252808320938e1683529281528282208b8352905220805460ff19166001179055610bb98a8a89896115b5565b896001600160a01b03168b8d6001600160a01b03167fda4355117ec65be2104e66a73b0d7e9de15423bd5e7d494d50539dd066d0fbde8c8c604051808381526020018281526020019250505060405180910390a4505050505050505050505050565b60045481565b60026020526000908152604090205481565b60018181548110610c4057fe5b6000918252602090912001546001600160a01b0316905081565b6001545b90565b6001600160a01b038416610c7457600080fd5b610c7d846110b1565b15610c8757600080fd5b6000610c91611514565b600380546001810190915560408051600160b91b6830b23229b4b3b732b902602080830191909152602982019490945260498082019390935281518082039093018352606981018252825192840192909220600080516020611d04833981519152608984015260a58084018290528251808503909101815260c590930190915281519190920120909150610d278186868661151a565b610d2f610c5a565b6001600160a01b03871660008181526002602090815260408083209490945560018054808201825592527fb10e2d527612073b26eecdfd717e6a320cf44b4afac2b0732d9fcbe2b7fa0cf690910180546001600160a01b03191683179055825191825291517f637c77a2d598a51d085d4a2413332c45a235a25ee855bf3dfcdc2c8fcf02860f929181900390910190a1505050505050565b6001600160a01b039283166000908152600760209081526040808320948352938152838220929094168152925290205490565b60076020528360005260406000206020528260005260406000206020528160005260406000208181548110610e2b57fe5b600091825260209091206002909102018054600190910154909450925084915050565b610e5661131f565b610eaa5760408051600160e51b62461bcd02815260206004820181905260248201527f4f776e61626c653a2063616c6c6572206973206e6f7420746865206f776e6572604482015290519081900360640190fd5b600580546001600160a01b0383166001600160a01b0319909116811790915560408051918252517fa9833f88e240d8eb1b2a6dbaf83b80884401ce7f7a972a9352538d966e1ba6279181900360200190a150565b6005546001600160a01b031681565b610f1561131f565b610f695760408051600160e51b62461bcd02815260206004820181905260248201527f4f776e61626c653a2063616c6c6572206973206e6f7420746865206f776e6572604482015290519081900360640190fd5b600080546040516001600160a01b03909116907f8be0079c531659141344cd1fd0a4f28419497f9722a3daafe3b4186f6b6457e0908390a3600080546001600160a01b0319169055565b60008411610fc057600080fd5b6000610fca611514565b6003805460018101909155604080517f75706461746551756f72756d0000000000000000000000000000000000000000602080830191909152602c820194909452604c8082019390935281518082039093018352606c81018252825192840192909220600080516020611d04833981519152608c84015260a88084018290528251808503909101815260c8909301909152815191909201209091506110718186868661151a565b60048690556040805187815290517f5cb3f38de4dd795897ed02809e482378027c600f566d6e4bd14dfe3a44a6d7379181900360200190a1505050505050565b6001600160a01b0381166000908152600260205260408120541515806111015750816001600160a01b031660016000815481106110ea57fe5b6000918252602090912001546001600160a01b0316145b92915050565b6001600160a01b03841661111a57600080fd5b611123846110b1565b61112c57600080fd5b6000611136611514565b6003805460018101909155604080517f72656d6f76655369676e65720000000000000000000000000000000000000000602080830191909152602c820194909452604c8082019390935281518082039093018352606c81018252825192840192909220600080516020611d04833981519152608c84015260a88084018290528251808503909101815260c8909301909152815191909201209091506111dd8186868661151a565b60006111f860016111ec610c5a565b9063ffffffff61171616565b905060045481101561120957600080fd5b6001600160a01b03871660009081526002602052604090205481811461129c5760006001838154811061123857fe5b600091825260209091200154600180546001600160a01b03909216925082918490811061126157fe5b600091825260208083209190910180546001600160a01b0319166001600160a01b039485161790559290911681526002909152604090208190555b60018054906112af906000198301611c96565b506001600160a01b038816600081815260026020908152604080832092909255815192835290517f1803740ef72fc16e647c10fe2d31cf61a1578081960c2e3fb7f5aa957e82f5509281900390910190a15050505050505050565b60035481565b6000546001600160a01b031690565b6000546001600160a01b0316331490565b600061133d338686610dc7565b33600090815260076020908152604080832089845282528083206001600160a01b038981168552908352818420825180840184528981524381860190815282546001818101855593885286882092516002909102909201918255519101556005548251600160e11b6342d67503028152925195965093949316926385acea0692600480840193919291829003018186803b1580156113da57600080fd5b505afa1580156113ee573d6000803e3d6000fd5b505050506040513d602081101561140457600080fd5b505190506114143385838661175f565b60408051858152602081018490528215158183015290516001600160a01b03871691889133917fec47c11127a4fc4eea1866690010369bc0f14d7c82e42c7590841f88440d569f919081900360600190a450949350505050565b600860209081526000948552604080862082529385528385208152918452828420909152825290205460ff1681565b6114a561131f565b6114f95760408051600160e51b62461bcd02815260206004820181905260248201527f4f776e61626c653a2063616c6c6572206973206e6f7420746865206f776e6572604482015290519081900360640190fd5b6115028161189c565b50565b6006546001600160a01b031681565b61201990565b825182518114801561152c5750815181145b61153557600080fd5b60045481101561154457600080fd5b60005b818110156115ad5761159c6115978787848151811061156257fe5b602002602001015187858151811061157657fe5b602002602001015187868151811061158a57fe5b602002602001015161193f565b6110b1565b6115a557600080fd5b600101611547565b505050505050565b6000826116725760006115c9868685611aec565b909250905081158015906115e557506001600160a01b03811615155b156116705760065460408051600160e01b6340c10f190281526001600160a01b03848116600483015260248201869052915191909216916340c10f199160448083019260209291908290030181600087803b15801561164357600080fd5b505af1158015611657573d6000803e3d6000fd5b505050506040513d602081101561166d57600080fd5b50505b505b6006546001600160a01b03166340c10f1986611694878563ffffffff61171616565b6040518363ffffffff1660e01b815260040180836001600160a01b03166001600160a01b0316815260200182815260200192505050602060405180830381600087803b1580156116e357600080fd5b505af11580156116f7573d6000803e3d6000fd5b505050506040513d602081101561170d57600080fd5b50505050505050565b600061175883836040518060400160405280601e81526020017f536166654d6174683a207375627472616374696f6e206f766572666c6f770000815250611bfc565b9392505050565b60008215611825576000611774868685611aec565b9092509050811580159061179057506001600160a01b03811615155b156118235760065460408051600160e01b6323b872dd0281526001600160a01b038981166004830152848116602483015260448201869052915191909216916323b872dd9160648083019260209291908290030181600087803b1580156117f657600080fd5b505af115801561180a573d6000803e3d6000fd5b505050506040513d602081101561182057600080fd5b50505b505b60065460408051600160e41b63079cc6790281526001600160a01b03888116600483015260248201889052915191909216916379cc679091604480830192600092919082900301818387803b15801561187d57600080fd5b505af1158015611891573d6000803e3d6000fd5b505050505050505050565b6001600160a01b0381166118e457604051600160e51b62461bcd028152600401808060200182810382526026815260200180611cde6026913960400191505060405180910390fd5b600080546040516001600160a01b03808516939216917f8be0079c531659141344cd1fd0a4f28419497f9722a3daafe3b4186f6b6457e091a3600080546001600160a01b0319166001600160a01b0392909216919091179055565b60007f7fffffffffffffffffffffffffffffff5d576e7357a4501ddfe92f46681b20a08211156119b95760408051600160e51b62461bcd02815260206004820152601b60248201527f696e76616c6964207369676e6174757265202773272076616c75650000000000604482015290519081900360640190fd5b8360ff16601b14806119ce57508360ff16601c145b611a225760408051600160e51b62461bcd02815260206004820152601b60248201527f696e76616c6964207369676e6174757265202776272076616c75650000000000604482015290519081900360640190fd5b6040805160008152602080820180845288905260ff8716828401526060820186905260808201859052915160019260a0808401939192601f1981019281900390910190855afa158015611a79573d6000803e3d6000fd5b5050604051601f1901519150506001600160a01b038116611ae45760408051600160e51b62461bcd02815260206004820152601160248201527f696e76616c6964207369676e6174757265000000000000000000000000000000604482015290519081900360640190fd5b949350505050565b60055460408051600160e01b63f257fbcb0281526001600160a01b03868116600483015260248201869052848116604483015291516000938493169163f257fbcb916064808301926020929190829003018186803b158015611b4d57600080fd5b505afa158015611b61573d6000803e3d6000fd5b505050506040513d6020811015611b7757600080fd5b505160055460408051600160e11b63326f824f02815290519294506001600160a01b03909116916364df049e91600480820192602092909190829003018186803b158015611bc457600080fd5b505afa158015611bd8573d6000803e3d6000fd5b505050506040513d6020811015611bee57600080fd5b505191959194509092505050565b60008184841115611c8e57604051600160e51b62461bcd0281526004018080602001828103825283818151815260200191508051906020019080838360005b83811015611c53578181015183820152602001611c3b565b50505050905090810190601f168015611c805780820380516001836020036101000a031916815260200191505b509250505060405180910390fd5b505050900390565b815481835581811115611cba57600083815260209020611cba918101908301611cbf565b505050565b610c5e91905b80821115611cd95760008155600101611cc5565b509056fe4f776e61626c653a206e6577206f776e657220697320746865207a65726f206164647265737319457468657265756d205369676e6564204d6573736167653a0a333200000000a165627a7a7230582029caf1c3169172a078b15927c778e10a85df356e2192d747977f780c4bc352780029",
  "linkReferences": {},
  "deployedLinkReferences": {}
}