{
  "contracts/APMReservoir.sol": {
    "APMReservoir": {
      "abi": [
        {
          "inputs": [
            {
              "internalType": "address",
              "name": "_token",
              "type": "address"
            },
            {
              "internalType": "uint256",
              "name": "_quorum",
              "type": "uint256"
            },
            {
              "internalType": "address[]",
              "name": "_signers",
              "type": "address[]"
            }
          ],
          "stateMutability": "nonpayable",
          "type": "constructor"
        },
        {
          "anonymous": false,
          "inputs": [
            {
              "indexed": false,
              "internalType": "address",
              "name": "signer",
              "type": "address"
            }
          ],
          "name": "AddSigner",
          "type": "event"
        },
        {
          "anonymous": false,
          "inputs": [
            {
              "indexed": true,
              "internalType": "address",
              "name": "previousOwner",
              "type": "address"
            },
            {
              "indexed": true,
              "internalType": "address",
              "name": "newOwner",
              "type": "address"
            }
          ],
          "name": "OwnershipTransferred",
          "type": "event"
        },
        {
          "anonymous": false,
          "inputs": [
            {
              "indexed": true,
              "internalType": "address",
              "name": "sender",
              "type": "address"
            },
            {
              "indexed": true,
              "internalType": "uint256",
              "name": "fromChainId",
              "type": "uint256"
            },
            {
              "indexed": true,
              "internalType": "address",
              "name": "receiver",
              "type": "address"
            },
            {
              "indexed": false,
              "internalType": "uint256",
              "name": "amount",
              "type": "uint256"
            },
            {
              "indexed": false,
              "internalType": "uint256",
              "name": "sendingId",
              "type": "uint256"
            }
          ],
          "name": "ReceiveToken",
          "type": "event"
        },
        {
          "anonymous": false,
          "inputs": [
            {
              "indexed": false,
              "internalType": "address",
              "name": "signer",
              "type": "address"
            }
          ],
          "name": "RemoveSigner",
          "type": "event"
        },
        {
          "anonymous": false,
          "inputs": [
            {
              "indexed": true,
              "internalType": "address",
              "name": "sender",
              "type": "address"
            },
            {
              "indexed": true,
              "internalType": "uint256",
              "name": "toChainId",
              "type": "uint256"
            },
            {
              "indexed": true,
              "internalType": "address",
              "name": "receiver",
              "type": "address"
            },
            {
              "indexed": false,
              "internalType": "uint256",
              "name": "amount",
              "type": "uint256"
            },
            {
              "indexed": false,
              "internalType": "uint256",
              "name": "sendingId",
              "type": "uint256"
            },
            {
              "indexed": false,
              "internalType": "bool",
              "name": "isFeeCollected",
              "type": "bool"
            }
          ],
          "name": "SendToken",
          "type": "event"
        },
        {
          "anonymous": false,
          "inputs": [
            {
              "indexed": false,
              "internalType": "contract IFeeDB",
              "name": "newFeeDB",
              "type": "address"
            }
          ],
          "name": "UpdateFeeDB",
          "type": "event"
        },
        {
          "anonymous": false,
          "inputs": [
            {
              "indexed": false,
              "internalType": "uint256",
              "name": "newQuorum",
              "type": "uint256"
            }
          ],
          "name": "UpdateQuorum",
          "type": "event"
        },
        {
          "inputs": [
            {
              "internalType": "address",
              "name": "signer",
              "type": "address"
            },
            {
              "internalType": "uint8[]",
              "name": "vs",
              "type": "uint8[]"
            },
            {
              "internalType": "bytes32[]",
              "name": "rs",
              "type": "bytes32[]"
            },
            {
              "internalType": "bytes32[]",
              "name": "ss",
              "type": "bytes32[]"
            }
          ],
          "name": "addSigner",
          "outputs": [],
          "stateMutability": "nonpayable",
          "type": "function"
        },
        {
          "inputs": [],
          "name": "feeDB",
          "outputs": [
            {
              "internalType": "contract IFeeDB",
              "name": "",
              "type": "address"
            }
          ],
          "stateMutability": "view",
          "type": "function"
        },
        {
          "inputs": [
            {
              "internalType": "address",
              "name": "signer",
              "type": "address"
            }
          ],
          "name": "isSigner",
          "outputs": [
            {
              "internalType": "bool",
              "name": "",
              "type": "bool"
            }
          ],
          "stateMutability": "view",
          "type": "function"
        },
        {
          "inputs": [
            {
              "internalType": "address",
              "name": "",
              "type": "address"
            },
            {
              "internalType": "uint256",
              "name": "",
              "type": "uint256"
            },
            {
              "internalType": "address",
              "name": "",
              "type": "address"
            },
            {
              "internalType": "uint256",
              "name": "",
              "type": "uint256"
            }
          ],
          "name": "isTokenReceived",
          "outputs": [
            {
              "internalType": "bool",
              "name": "",
              "type": "bool"
            }
          ],
          "stateMutability": "view",
          "type": "function"
        },
        {
          "inputs": [],
          "name": "owner",
          "outputs": [
            {
              "internalType": "address",
              "name": "",
              "type": "address"
            }
          ],
          "stateMutability": "view",
          "type": "function"
        },
        {
          "inputs": [],
          "name": "quorum",
          "outputs": [
            {
              "internalType": "uint256",
              "name": "",
              "type": "uint256"
            }
          ],
          "stateMutability": "view",
          "type": "function"
        },
        {
          "inputs": [
            {
              "internalType": "address",
              "name": "sender",
              "type": "address"
            },
            {
              "internalType": "uint256",
              "name": "fromChainId",
              "type": "uint256"
            },
            {
              "internalType": "address",
              "name": "receiver",
              "type": "address"
            },
            {
              "internalType": "uint256",
              "name": "amount",
              "type": "uint256"
            },
            {
              "internalType": "uint256",
              "name": "sendingId",
              "type": "uint256"
            },
            {
              "internalType": "bool",
              "name": "isFeePayed",
              "type": "bool"
            },
            {
              "internalType": "address",
              "name": "nft",
              "type": "address"
            },
            {
              "internalType": "uint8[]",
              "name": "vs",
              "type": "uint8[]"
            },
            {
              "internalType": "bytes32[]",
              "name": "rs",
              "type": "bytes32[]"
            },
            {
              "internalType": "bytes32[]",
              "name": "ss",
              "type": "bytes32[]"
            }
          ],
          "name": "receiveToken",
          "outputs": [],
          "stateMutability": "nonpayable",
          "type": "function"
        },
        {
          "inputs": [
            {
              "internalType": "address",
              "name": "signer",
              "type": "address"
            },
            {
              "internalType": "uint8[]",
              "name": "vs",
              "type": "uint8[]"
            },
            {
              "internalType": "bytes32[]",
              "name": "rs",
              "type": "bytes32[]"
            },
            {
              "internalType": "bytes32[]",
              "name": "ss",
              "type": "bytes32[]"
            }
          ],
          "name": "removeSigner",
          "outputs": [],
          "stateMutability": "nonpayable",
          "type": "function"
        },
        {
          "inputs": [],
          "name": "renounceOwnership",
          "outputs": [],
          "stateMutability": "nonpayable",
          "type": "function"
        },
        {
          "inputs": [
            {
              "internalType": "uint256",
              "name": "toChainId",
              "type": "uint256"
            },
            {
              "internalType": "address",
              "name": "receiver",
              "type": "address"
            },
            {
              "internalType": "uint256",
              "name": "amount",
              "type": "uint256"
            },
            {
              "internalType": "address",
              "name": "nft",
              "type": "address"
            }
          ],
          "name": "sendToken",
          "outputs": [
            {
              "internalType": "uint256",
              "name": "sendingId",
              "type": "uint256"
            }
          ],
          "stateMutability": "nonpayable",
          "type": "function"
        },
        {
          "inputs": [
            {
              "internalType": "address",
              "name": "sender",
              "type": "address"
            },
            {
              "internalType": "uint256",
              "name": "toChainId",
              "type": "uint256"
            },
            {
              "internalType": "address",
              "name": "receiver",
              "type": "address"
            }
          ],
          "name": "sendingCounts",
          "outputs": [
            {
              "internalType": "uint256",
              "name": "",
              "type": "uint256"
            }
          ],
          "stateMutability": "view",
          "type": "function"
        },
        {
          "inputs": [
            {
              "internalType": "address",
              "name": "",
              "type": "address"
            },
            {
              "internalType": "uint256",
              "name": "",
              "type": "uint256"
            },
            {
              "internalType": "address",
              "name": "",
              "type": "address"
            },
            {
              "internalType": "uint256",
              "name": "",
              "type": "uint256"
            }
          ],
          "name": "sendingData",
          "outputs": [
            {
              "internalType": "uint256",
              "name": "sendedAmount",
              "type": "uint256"
            },
            {
              "internalType": "uint256",
              "name": "sendingBlock",
              "type": "uint256"
            }
          ],
          "stateMutability": "view",
          "type": "function"
        },
        {
          "inputs": [
            {
              "internalType": "address",
              "name": "",
              "type": "address"
            }
          ],
          "name": "signerIndex",
          "outputs": [
            {
              "internalType": "uint256",
              "name": "",
              "type": "uint256"
            }
          ],
          "stateMutability": "view",
          "type": "function"
        },
        {
          "inputs": [
            {
              "internalType": "uint256",
              "name": "",
              "type": "uint256"
            }
          ],
          "name": "signers",
          "outputs": [
            {
              "internalType": "address",
              "name": "",
              "type": "address"
            }
          ],
          "stateMutability": "view",
          "type": "function"
        },
        {
          "inputs": [],
          "name": "signersLength",
          "outputs": [
            {
              "internalType": "uint256",
              "name": "",
              "type": "uint256"
            }
          ],
          "stateMutability": "view",
          "type": "function"
        },
        {
          "inputs": [],
          "name": "signingNonce",
          "outputs": [
            {
              "internalType": "uint256",
              "name": "",
              "type": "uint256"
            }
          ],
          "stateMutability": "view",
          "type": "function"
        },
        {
          "inputs": [],
          "name": "token",
          "outputs": [
            {
              "internalType": "address",
              "name": "",
              "type": "address"
            }
          ],
          "stateMutability": "view",
          "type": "function"
        },
        {
          "inputs": [
            {
              "internalType": "address",
              "name": "newOwner",
              "type": "address"
            }
          ],
          "name": "transferOwnership",
          "outputs": [],
          "stateMutability": "nonpayable",
          "type": "function"
        },
        {
          "inputs": [
            {
              "internalType": "contract IFeeDB",
              "name": "newDB",
              "type": "address"
            }
          ],
          "name": "updateFeeDB",
          "outputs": [],
          "stateMutability": "nonpayable",
          "type": "function"
        },
        {
          "inputs": [
            {
              "internalType": "uint256",
              "name": "newQuorum",
              "type": "uint256"
            },
            {
              "internalType": "uint8[]",
              "name": "vs",
              "type": "uint8[]"
            },
            {
              "internalType": "bytes32[]",
              "name": "rs",
              "type": "bytes32[]"
            },
            {
              "internalType": "bytes32[]",
              "name": "ss",
              "type": "bytes32[]"
            }
          ],
          "name": "updateQuorum",
          "outputs": [],
          "stateMutability": "nonpayable",
          "type": "function"
        }
      ],
      "evm": {
        "bytecode": {
          "linkReferences": {},
          "object": "60806040523480156200001157600080fd5b5060405162001c0a38038062001c0a833981016040819052620000349162000300565b6200003f33620001fc565b6001600160a01b0383166200005357600080fd5b600680546001600160a01b0319166001600160a01b038516179055816200007957600080fd5b60048290556040518281527f5cb3f38de4dd795897ed02809e482378027c600f566d6e4bd14dfe3a44a6d7379060200160405180910390a18181511015620000c057600080fd5b8051620000d59060019060208401906200024c565b5060005b8151811015620001f2576000828281518110620000fa57620000fa620003f2565b6020026020010151905060006001600160a01b0316816001600160a01b031614156200012557600080fd5b6001600160a01b038116600090815260026020526040902054156200014957600080fd5b81156200018d5782600081518110620001665762000166620003f2565b60200260200101516001600160a01b0316816001600160a01b031614156200018d57600080fd5b6001600160a01b03811660008181526002602090815260409182902085905590519182527f637c77a2d598a51d085d4a2413332c45a235a25ee855bf3dfcdc2c8fcf02860f910160405180910390a15080620001e98162000408565b915050620000d9565b5050505062000432565b600080546001600160a01b038381166001600160a01b0319831681178455604051919092169283917f8be0079c531659141344cd1fd0a4f28419497f9722a3daafe3b4186f6b6457e09190a35050565b828054828255906000526020600020908101928215620002a4579160200282015b82811115620002a457825182546001600160a01b0319166001600160a01b039091161782556020909201916001909101906200026d565b50620002b2929150620002b6565b5090565b5b80821115620002b25760008155600101620002b7565b80516001600160a01b0381168114620002e557600080fd5b919050565b634e487b7160e01b600052604160045260246000fd5b6000806000606084860312156200031657600080fd5b6200032184620002cd565b60208581015160408701519295509350906001600160401b03808211156200034857600080fd5b818701915087601f8301126200035d57600080fd5b815181811115620003725762000372620002ea565b8060051b604051601f19603f830116810181811085821117156200039a576200039a620002ea565b60405291825284820192508381018501918a831115620003b957600080fd5b938501935b82851015620003e257620003d285620002cd565b84529385019392850192620003be565b8096505050505050509250925092565b634e487b7160e01b600052603260045260246000fd5b60006000198214156200042b57634e487b7160e01b600052601160045260246000fd5b5060010190565b6117c880620004426000396000f3fe608060405234801561001057600080fd5b506004361061012c5760003560e01c8063715018a6116100ad5780638da5cb5b116100715780638da5cb5b146102b1578063b707f841146102c2578063d14f36f1146102d5578063f2fde38b14610312578063fc0c546a1461032557600080fd5b8063715018a614610257578063779780ea1461025f5780637df73e27146102725780638053f79c1461029557806382ac4168146102a857600080fd5b8063479e517d116100f4578063479e517d146101b5578063488c3f5e146101c85780634d74ce2e146102095780635ecdf245146102315780636b3f599b1461024457600080fd5b806315b51058146101315780631703a018146101465780631a91a0ab146101625780632079fb9a1461018257806341f684f3146101ad575b600080fd5b61014461013f3660046113a1565b610338565b005b61014f60045481565b6040519081526020015b60405180910390f35b61014f61017036600461148b565b60026020526000908152604090205481565b6101956101903660046114a8565b6104d2565b6040516001600160a01b039091168152602001610159565b60015461014f565b6101446101c33660046114c1565b6104fc565b61014f6101d636600461155c565b6001600160a01b039283166000908152600760209081526040808320948352938152838220929094168152925290205490565b61021c61021736600461159e565b610646565b60408051928352602083019190915201610159565b61014461023f36600461148b565b61069d565b600554610195906001600160a01b031681565b610144610724565b61014461026d3660046115e6565b61075a565b61028561028036600461148b565b61082b565b6040519015158152602001610159565b6101446102a33660046114c1565b610887565b61014f60035481565b6000546001600160a01b0316610195565b61014f6102d036600461161b565b610a8c565b6102856102e336600461159e565b600860209081526000948552604080862082529385528385208152918452828420909152825290205460ff1681565b61014461032036600461148b565b610bb5565b600654610195906001600160a01b031681565b6001600160a01b03808b1660009081526008602090815260408083208d84528252808320938c1683529281528282208983529052205460ff161561037b57600080fd5b6040805160208082018c90526bffffffffffffffffffffffff1960608e811b8216848601524660548501528c811b82166074850152608884018c905260a884018b905289151560f81b60c885015288901b1660c9830152825180830360bd01815260dd83019093528251920191909120906000906103fd90839060fd01611665565b60405160208183030381529060405280519060200120905061042181868686610c50565b6001600160a01b03808d1660009081526008602090815260408083208f84528252808320938e1683529281528282208b8352905220805460ff1916600117905561046d8a8a8989610d02565b896001600160a01b03168b8d6001600160a01b03167fda4355117ec65be2104e66a73b0d7e9de15423bd5e7d494d50539dd066d0fbde8c8c6040516104bc929190918252602082015260400190565b60405180910390a4505050505050505050505050565b600181815481106104e257600080fd5b6000918252602090912001546001600160a01b0316905081565b6001600160a01b03841661050f57600080fd5b6105188461082b565b1561052257600080fd5b6003805460009146919083610536836116ac565b909155506040516830b23229b4b3b732b960b91b60208201526029810192909252604982015260690160405160208183030381529060405280519060200120905060008160405160200161058a9190611665565b6040516020818303038152906040528051906020012090506105ae81868686610c50565b600180546001600160a01b03881660008181526002602090815260408083208590558486018655949091527fb10e2d527612073b26eecdfd717e6a320cf44b4afac2b0732d9fcbe2b7fa0cf690920180546001600160a01b0319168217905591519182527f637c77a2d598a51d085d4a2413332c45a235a25ee855bf3dfcdc2c8fcf02860f91015b60405180910390a1505050505050565b6007602052836000526040600020602052826000526040600020602052816000526040600020818154811061067a57600080fd5b600091825260209091206002909102018054600190910154909450925084915050565b6000546001600160a01b031633146106d05760405162461bcd60e51b81526004016106c7906116c7565b60405180910390fd5b600580546001600160a01b0319166001600160a01b0383169081179091556040519081527fa9833f88e240d8eb1b2a6dbaf83b80884401ce7f7a972a9352538d966e1ba6279060200160405180910390a150565b6000546001600160a01b0316331461074e5760405162461bcd60e51b81526004016106c7906116c7565b6107586000610e3e565b565b6000841161076757600080fd5b600380546000914691908361077b836116ac565b909155506040516b75706461746551756f72756d60a01b6020820152602c810192909252604c820152606c016040516020818303038152906040528051906020012090506000816040516020016107d29190611665565b6040516020818303038152906040528051906020012090506107f681868686610c50565b60048690556040518681527f5cb3f38de4dd795897ed02809e482378027c600f566d6e4bd14dfe3a44a6d73790602001610636565b6001600160a01b0381166000908152600260205260408120541515806108815750816001600160a01b0316600160008154811061086a5761086a6116fc565b6000918252602090912001546001600160a01b0316145b92915050565b6001600160a01b03841661089a57600080fd5b6108a38461082b565b6108ac57600080fd5b60038054600091469190836108c0836116ac565b909155506040516b3932b6b7bb32a9b4b3b732b960a11b6020820152602c810192909252604c820152606c016040516020818303038152906040528051906020012090506000816040516020016109179190611665565b60405160208183030381529060405280519060200120905061093b81868686610c50565b6000610951600161094b60015490565b90610e8e565b905060045481101561096257600080fd5b6001600160a01b038716600090815260026020526040902054818114610a0157600060018381548110610997576109976116fc565b600091825260209091200154600180546001600160a01b0390921692508291849081106109c6576109c66116fc565b600091825260208083209190910180546001600160a01b0319166001600160a01b039485161790559290911681526002909152604090208190555b6001805480610a1257610a12611712565b60008281526020808220600019908401810180546001600160a01b03191690559092019092556001600160a01b038a168083526002825260408084209390935591519182527f1803740ef72fc16e647c10fe2d31cf61a1578081960c2e3fb7f5aa957e82f550910160405180910390a15050505050505050565b33600090815260076020908152604080832087845282528083206001600160a01b03878116855281845282852080549285528351808501855288815243818701908152600180860184559288528688209151600286029092019182555191015560055483516342d6750360e11b815293519295949116926385acea0692600480830193928290030181865afa158015610b29573d6000803e3d6000fd5b505050506040513d601f19601f82011682018060405250810190610b4d9190611728565b9050610b5b33858386610ea1565b60408051858152602081018490528215158183015290516001600160a01b03871691889133917fec47c11127a4fc4eea1866690010369bc0f14d7c82e42c7590841f88440d569f919081900360600190a450949350505050565b6000546001600160a01b03163314610bdf5760405162461bcd60e51b81526004016106c7906116c7565b6001600160a01b038116610c445760405162461bcd60e51b815260206004820152602660248201527f4f776e61626c653a206e6577206f776e657220697320746865207a65726f206160448201526564647265737360d01b60648201526084016106c7565b610c4d81610e3e565b50565b8251825181148015610c625750815181145b610c6b57600080fd5b600454811015610c7a57600080fd5b60005b81811015610cfa57610cdf61028087878481518110610c9e57610c9e6116fc565b6020026020010151878581518110610cb857610cb86116fc565b6020026020010151878681518110610cd257610cd26116fc565b6020026020010151610f99565b610ce857600080fd5b80610cf2816116ac565b915050610c7d565b505050505050565b600082610db2576000610d1686868561111e565b90925090508115801590610d3257506001600160a01b03811615155b15610db05760065460405163a9059cbb60e01b81526001600160a01b038381166004830152602482018590529091169063a9059cbb906044016020604051808303816000875af1158015610d8a573d6000803e3d6000fd5b505050506040513d601f19601f82011682018060405250810190610dae9190611728565b505b505b6006546001600160a01b031663a9059cbb86610dce8785610e8e565b6040516001600160e01b031960e085901b1681526001600160a01b03909216600483015260248201526044015b6020604051808303816000875af1158015610e1a573d6000803e3d6000fd5b505050506040513d601f19601f82011682018060405250810190610cfa9190611728565b600080546001600160a01b038381166001600160a01b0319831681178455604051919092169283917f8be0079c531659141344cd1fd0a4f28419497f9722a3daafe3b4186f6b6457e09190a35050565b6000610e9a8284611745565b9392505050565b60008215610f5a576000610eb686868561111e565b90925090508115801590610ed257506001600160a01b03811615155b15610f58576006546040516323b872dd60e01b81526001600160a01b038881166004830152838116602483015260448201859052909116906323b872dd906064016020604051808303816000875af1158015610f32573d6000803e3d6000fd5b505050506040513d601f19601f82011682018060405250810190610f569190611728565b505b505b6006546040516323b872dd60e01b81526001600160a01b03878116600483015230602483015260448201879052909116906323b872dd90606401610dfb565b60007f7fffffffffffffffffffffffffffffff5d576e7357a4501ddfe92f46681b20a082111561100b5760405162461bcd60e51b815260206004820152601b60248201527f696e76616c6964207369676e6174757265202773272076616c7565000000000060448201526064016106c7565b8360ff16601b148061102057508360ff16601c145b61106c5760405162461bcd60e51b815260206004820152601b60248201527f696e76616c6964207369676e6174757265202776272076616c7565000000000060448201526064016106c7565b60408051600081526020810180835287905260ff861691810191909152606081018490526080810183905260019060a0016020604051602081039080840390855afa1580156110bf573d6000803e3d6000fd5b5050604051601f1901519150506001600160a01b0381166111165760405162461bcd60e51b8152602060048201526011602482015270696e76616c6964207369676e617475726560781b60448201526064016106c7565b949350505050565b60055460405163f257fbcb60e01b81526001600160a01b038581166004830152602482018590528381166044830152600092839291169063f257fbcb90606401602060405180830381865afa15801561117b573d6000803e3d6000fd5b505050506040513d601f19601f8201168201806040525081019061119f919061175c565b9150600560009054906101000a90046001600160a01b03166001600160a01b03166364df049e6040518163ffffffff1660e01b8152600401602060405180830381865afa1580156111f4573d6000803e3d6000fd5b505050506040513d601f19601f820116820180604052508101906112189190611775565b9050935093915050565b6001600160a01b0381168114610c4d57600080fd5b803561124281611222565b919050565b8015158114610c4d57600080fd5b803561124281611247565b634e487b7160e01b600052604160045260246000fd5b604051601f8201601f1916810167ffffffffffffffff8111828210171561129f5761129f611260565b604052919050565b600067ffffffffffffffff8211156112c1576112c1611260565b5060051b60200190565b600082601f8301126112dc57600080fd5b813560206112f16112ec836112a7565b611276565b82815260059290921b8401810191818101908684111561131057600080fd5b8286015b8481101561133b57803560ff8116811461132e5760008081fd5b8352918301918301611314565b509695505050505050565b600082601f83011261135757600080fd5b813560206113676112ec836112a7565b82815260059290921b8401810191818101908684111561138657600080fd5b8286015b8481101561133b578035835291830191830161138a565b6000806000806000806000806000806101408b8d0312156113c157600080fd5b6113ca8b611237565b995060208b013598506113df60408c01611237565b975060608b0135965060808b013595506113fb60a08c01611255565b945061140960c08c01611237565b935060e08b013567ffffffffffffffff8082111561142657600080fd5b6114328e838f016112cb565b94506101008d013591508082111561144957600080fd5b6114558e838f01611346565b93506101208d013591508082111561146c57600080fd5b506114798d828e01611346565b9150509295989b9194979a5092959850565b60006020828403121561149d57600080fd5b8135610e9a81611222565b6000602082840312156114ba57600080fd5b5035919050565b600080600080608085870312156114d757600080fd5b84356114e281611222565b9350602085013567ffffffffffffffff808211156114ff57600080fd5b61150b888389016112cb565b9450604087013591508082111561152157600080fd5b61152d88838901611346565b9350606087013591508082111561154357600080fd5b5061155087828801611346565b91505092959194509250565b60008060006060848603121561157157600080fd5b833561157c81611222565b925060208401359150604084013561159381611222565b809150509250925092565b600080600080608085870312156115b457600080fd5b84356115bf81611222565b93506020850135925060408501356115d681611222565b9396929550929360600135925050565b600080600080608085870312156115fc57600080fd5b84359350602085013567ffffffffffffffff808211156114ff57600080fd5b6000806000806080858703121561163157600080fd5b84359350602085013561164381611222565b925060408501359150606085013561165a81611222565b939692955090935050565b7f19457468657265756d205369676e6564204d6573736167653a0a3332000000008152601c810191909152603c0190565b634e487b7160e01b600052601160045260246000fd5b60006000198214156116c0576116c0611696565b5060010190565b6020808252818101527f4f776e61626c653a2063616c6c6572206973206e6f7420746865206f776e6572604082015260600190565b634e487b7160e01b600052603260045260246000fd5b634e487b7160e01b600052603160045260246000fd5b60006020828403121561173a57600080fd5b8151610e9a81611247565b60008282101561175757611757611696565b500390565b60006020828403121561176e57600080fd5b5051919050565b60006020828403121561178757600080fd5b8151610e9a8161122256fea2646970667358221220656ffec705e31c399c547fbe0d6081d1b5dc297a81db5713e6df341d96a021c564736f6c634300080c0033",
          "opcodes": "PUSH1 0x80 PUSH1 0x40 MSTORE CALLVALUE DUP1 ISZERO PUSH3 0x11 JUMPI PUSH1 0x0 DUP1 REVERT JUMPDEST POP PUSH1 0x40 MLOAD PUSH3 0x1C0A CODESIZE SUB DUP1 PUSH3 0x1C0A DUP4 CODECOPY DUP2 ADD PUSH1 0x40 DUP2 SWAP1 MSTORE PUSH3 0x34 SWAP2 PUSH3 0x300 JUMP JUMPDEST PUSH3 0x3F CALLER PUSH3 0x1FC JUMP JUMPDEST PUSH1 0x1 PUSH1 0x1 PUSH1 0xA0 SHL SUB DUP4 AND PUSH3 0x53 JUMPI PUSH1 0x0 DUP1 REVERT JUMPDEST PUSH1 0x6 DUP1 SLOAD PUSH1 0x1 PUSH1 0x1 PUSH1 0xA0 SHL SUB NOT AND PUSH1 0x1 PUSH1 0x1 PUSH1 0xA0 SHL SUB DUP6 AND OR SWAP1 SSTORE DUP2 PUSH3 0x79 JUMPI PUSH1 0x0 DUP1 REVERT JUMPDEST PUSH1 0x4 DUP3 SWAP1 SSTORE PUSH1 0x40 MLOAD DUP3 DUP2 MSTORE PUSH32 0x5CB3F38DE4DD795897ED02809E482378027C600F566D6E4BD14DFE3A44A6D737 SWAP1 PUSH1 0x20 ADD PUSH1 0x40 MLOAD DUP1 SWAP2 SUB SWAP1 LOG1 DUP2 DUP2 MLOAD LT ISZERO PUSH3 0xC0 JUMPI PUSH1 0x0 DUP1 REVERT JUMPDEST DUP1 MLOAD PUSH3 0xD5 SWAP1 PUSH1 0x1 SWAP1 PUSH1 0x20 DUP5 ADD SWAP1 PUSH3 0x24C JUMP JUMPDEST POP PUSH1 0x0 JUMPDEST DUP2 MLOAD DUP2 LT ISZERO PUSH3 0x1F2 JUMPI PUSH1 0x0 DUP3 DUP3 DUP2 MLOAD DUP2 LT PUSH3 0xFA JUMPI PUSH3 0xFA PUSH3 0x3F2 JUMP JUMPDEST PUSH1 0x20 MUL PUSH1 0x20 ADD ADD MLOAD SWAP1 POP PUSH1 0x0 PUSH1 0x1 PUSH1 0x1 PUSH1 0xA0 SHL SUB AND DUP2 PUSH1 0x1 PUSH1 0x1 PUSH1 0xA0 SHL SUB AND EQ ISZERO PUSH3 0x125 JUMPI PUSH1 0x0 DUP1 REVERT JUMPDEST PUSH1 0x1 PUSH1 0x1 PUSH1 0xA0 SHL SUB DUP2 AND PUSH1 0x0 SWAP1 DUP2 MSTORE PUSH1 0x2 PUSH1 0x20 MSTORE PUSH1 0x40 SWAP1 KECCAK256 SLOAD ISZERO PUSH3 0x149 JUMPI PUSH1 0x0 DUP1 REVERT JUMPDEST DUP2 ISZERO PUSH3 0x18D JUMPI DUP3 PUSH1 0x0 DUP2 MLOAD DUP2 LT PUSH3 0x166 JUMPI PUSH3 0x166 PUSH3 0x3F2 JUMP JUMPDEST PUSH1 0x20 MUL PUSH1 0x20 ADD ADD MLOAD PUSH1 0x1 PUSH1 0x1 PUSH1 0xA0 SHL SUB AND DUP2 PUSH1 0x1 PUSH1 0x1 PUSH1 0xA0 SHL SUB AND EQ ISZERO PUSH3 0x18D JUMPI PUSH1 0x0 DUP1 REVERT JUMPDEST PUSH1 0x1 PUSH1 0x1 PUSH1 0xA0 SHL SUB DUP2 AND PUSH1 0x0 DUP2 DUP2 MSTORE PUSH1 0x2 PUSH1 0x20 SWAP1 DUP2 MSTORE PUSH1 0x40 SWAP2 DUP3 SWAP1 KECCAK256 DUP6 SWAP1 SSTORE SWAP1 MLOAD SWAP2 DUP3 MSTORE PUSH32 0x637C77A2D598A51D085D4A2413332C45A235A25EE855BF3DFCDC2C8FCF02860F SWAP2 ADD PUSH1 0x40 MLOAD DUP1 SWAP2 SUB SWAP1 LOG1 POP DUP1 PUSH3 0x1E9 DUP2 PUSH3 0x408 JUMP JUMPDEST SWAP2 POP POP PUSH3 0xD9 JUMP JUMPDEST POP POP POP POP PUSH3 0x432 JUMP JUMPDEST PUSH1 0x0 DUP1 SLOAD PUSH1 0x1 PUSH1 0x1 PUSH1 0xA0 SHL SUB DUP4 DUP2 AND PUSH1 0x1 PUSH1 0x1 PUSH1 0xA0 SHL SUB NOT DUP4 AND DUP2 OR DUP5 SSTORE PUSH1 0x40 MLOAD SWAP2 SWAP1 SWAP3 AND SWAP3 DUP4 SWAP2 PUSH32 0x8BE0079C531659141344CD1FD0A4F28419497F9722A3DAAFE3B4186F6B6457E0 SWAP2 SWAP1 LOG3 POP POP JUMP JUMPDEST DUP3 DUP1 SLOAD DUP3 DUP3 SSTORE SWAP1 PUSH1 0x0 MSTORE PUSH1 0x20 PUSH1 0x0 KECCAK256 SWAP1 DUP2 ADD SWAP3 DUP3 ISZERO PUSH3 0x2A4 JUMPI SWAP2 PUSH1 0x20 MUL DUP3 ADD JUMPDEST DUP3 DUP2 GT ISZERO PUSH3 0x2A4 JUMPI DUP3 MLOAD DUP3 SLOAD PUSH1 0x1 PUSH1 0x1 PUSH1 0xA0 SHL SUB NOT AND PUSH1 0x1 PUSH1 0x1 PUSH1 0xA0 SHL SUB SWAP1 SWAP2 AND OR DUP3 SSTORE PUSH1 0x20 SWAP1 SWAP3 ADD SWAP2 PUSH1 0x1 SWAP1 SWAP2 ADD SWAP1 PUSH3 0x26D JUMP JUMPDEST POP PUSH3 0x2B2 SWAP3 SWAP2 POP PUSH3 0x2B6 JUMP JUMPDEST POP SWAP1 JUMP JUMPDEST JUMPDEST DUP1 DUP3 GT ISZERO PUSH3 0x2B2 JUMPI PUSH1 0x0 DUP2 SSTORE PUSH1 0x1 ADD PUSH3 0x2B7 JUMP JUMPDEST DUP1 MLOAD PUSH1 0x1 PUSH1 0x1 PUSH1 0xA0 SHL SUB DUP2 AND DUP2 EQ PUSH3 0x2E5 JUMPI PUSH1 0x0 DUP1 REVERT JUMPDEST SWAP2 SWAP1 POP JUMP JUMPDEST PUSH4 0x4E487B71 PUSH1 0xE0 SHL PUSH1 0x0 MSTORE PUSH1 0x41 PUSH1 0x4 MSTORE PUSH1 0x24 PUSH1 0x0 REVERT JUMPDEST PUSH1 0x0 DUP1 PUSH1 0x0 PUSH1 0x60 DUP5 DUP7 SUB SLT ISZERO PUSH3 0x316 JUMPI PUSH1 0x0 DUP1 REVERT JUMPDEST PUSH3 0x321 DUP5 PUSH3 0x2CD JUMP JUMPDEST PUSH1 0x20 DUP6 DUP2 ADD MLOAD PUSH1 0x40 DUP8 ADD MLOAD SWAP3 SWAP6 POP SWAP4 POP SWAP1 PUSH1 0x1 PUSH1 0x1 PUSH1 0x40 SHL SUB DUP1 DUP3 GT ISZERO PUSH3 0x348 JUMPI PUSH1 0x0 DUP1 REVERT JUMPDEST DUP2 DUP8 ADD SWAP2 POP DUP8 PUSH1 0x1F DUP4 ADD SLT PUSH3 0x35D JUMPI PUSH1 0x0 DUP1 REVERT JUMPDEST DUP2 MLOAD DUP2 DUP2 GT ISZERO PUSH3 0x372 JUMPI PUSH3 0x372 PUSH3 0x2EA JUMP JUMPDEST DUP1 PUSH1 0x5 SHL PUSH1 0x40 MLOAD PUSH1 0x1F NOT PUSH1 0x3F DUP4 ADD AND DUP2 ADD DUP2 DUP2 LT DUP6 DUP3 GT OR ISZERO PUSH3 0x39A JUMPI PUSH3 0x39A PUSH3 0x2EA JUMP JUMPDEST PUSH1 0x40 MSTORE SWAP2 DUP3 MSTORE DUP5 DUP3 ADD SWAP3 POP DUP4 DUP2 ADD DUP6 ADD SWAP2 DUP11 DUP4 GT ISZERO PUSH3 0x3B9 JUMPI PUSH1 0x0 DUP1 REVERT JUMPDEST SWAP4 DUP6 ADD SWAP4 JUMPDEST DUP3 DUP6 LT ISZERO PUSH3 0x3E2 JUMPI PUSH3 0x3D2 DUP6 PUSH3 0x2CD JUMP JUMPDEST DUP5 MSTORE SWAP4 DUP6 ADD SWAP4 SWAP3 DUP6 ADD SWAP3 PUSH3 0x3BE JUMP JUMPDEST DUP1 SWAP7 POP POP POP POP POP POP POP SWAP3 POP SWAP3 POP SWAP3 JUMP JUMPDEST PUSH4 0x4E487B71 PUSH1 0xE0 SHL PUSH1 0x0 MSTORE PUSH1 0x32 PUSH1 0x4 MSTORE PUSH1 0x24 PUSH1 0x0 REVERT JUMPDEST PUSH1 0x0 PUSH1 0x0 NOT DUP3 EQ ISZERO PUSH3 0x42B JUMPI PUSH4 0x4E487B71 PUSH1 0xE0 SHL PUSH1 0x0 MSTORE PUSH1 0x11 PUSH1 0x4 MSTORE PUSH1 0x24 PUSH1 0x0 REVERT JUMPDEST POP PUSH1 0x1 ADD SWAP1 JUMP JUMPDEST PUSH2 0x17C8 DUP1 PUSH3 0x442 PUSH1 0x0 CODECOPY PUSH1 0x0 RETURN INVALID PUSH1 0x80 PUSH1 0x40 MSTORE CALLVALUE DUP1 ISZERO PUSH2 0x10 JUMPI PUSH1 0x0 DUP1 REVERT JUMPDEST POP PUSH1 0x4 CALLDATASIZE LT PUSH2 0x12C JUMPI PUSH1 0x0 CALLDATALOAD PUSH1 0xE0 SHR DUP1 PUSH4 0x715018A6 GT PUSH2 0xAD JUMPI DUP1 PUSH4 0x8DA5CB5B GT PUSH2 0x71 JUMPI DUP1 PUSH4 0x8DA5CB5B EQ PUSH2 0x2B1 JUMPI DUP1 PUSH4 0xB707F841 EQ PUSH2 0x2C2 JUMPI DUP1 PUSH4 0xD14F36F1 EQ PUSH2 0x2D5 JUMPI DUP1 PUSH4 0xF2FDE38B EQ PUSH2 0x312 JUMPI DUP1 PUSH4 0xFC0C546A EQ PUSH2 0x325 JUMPI PUSH1 0x0 DUP1 REVERT JUMPDEST DUP1 PUSH4 0x715018A6 EQ PUSH2 0x257 JUMPI DUP1 PUSH4 0x779780EA EQ PUSH2 0x25F JUMPI DUP1 PUSH4 0x7DF73E27 EQ PUSH2 0x272 JUMPI DUP1 PUSH4 0x8053F79C EQ PUSH2 0x295 JUMPI DUP1 PUSH4 0x82AC4168 EQ PUSH2 0x2A8 JUMPI PUSH1 0x0 DUP1 REVERT JUMPDEST DUP1 PUSH4 0x479E517D GT PUSH2 0xF4 JUMPI DUP1 PUSH4 0x479E517D EQ PUSH2 0x1B5 JUMPI DUP1 PUSH4 0x488C3F5E EQ PUSH2 0x1C8 JUMPI DUP1 PUSH4 0x4D74CE2E EQ PUSH2 0x209 JUMPI DUP1 PUSH4 0x5ECDF245 EQ PUSH2 0x231 JUMPI DUP1 PUSH4 0x6B3F599B EQ PUSH2 0x244 JUMPI PUSH1 0x0 DUP1 REVERT JUMPDEST DUP1 PUSH4 0x15B51058 EQ PUSH2 0x131 JUMPI DUP1 PUSH4 0x1703A018 EQ PUSH2 0x146 JUMPI DUP1 PUSH4 0x1A91A0AB EQ PUSH2 0x162 JUMPI DUP1 PUSH4 0x2079FB9A EQ PUSH2 0x182 JUMPI DUP1 PUSH4 0x41F684F3 EQ PUSH2 0x1AD JUMPI JUMPDEST PUSH1 0x0 DUP1 REVERT JUMPDEST PUSH2 0x144 PUSH2 0x13F CALLDATASIZE PUSH1 0x4 PUSH2 0x13A1 JUMP JUMPDEST PUSH2 0x338 JUMP JUMPDEST STOP JUMPDEST PUSH2 0x14F PUSH1 0x4 SLOAD DUP2 JUMP JUMPDEST PUSH1 0x40 MLOAD SWAP1 DUP2 MSTORE PUSH1 0x20 ADD JUMPDEST PUSH1 0x40 MLOAD DUP1 SWAP2 SUB SWAP1 RETURN JUMPDEST PUSH2 0x14F PUSH2 0x170 CALLDATASIZE PUSH1 0x4 PUSH2 0x148B JUMP JUMPDEST PUSH1 0x2 PUSH1 0x20 MSTORE PUSH1 0x0 SWAP1 DUP2 MSTORE PUSH1 0x40 SWAP1 KECCAK256 SLOAD DUP2 JUMP JUMPDEST PUSH2 0x195 PUSH2 0x190 CALLDATASIZE PUSH1 0x4 PUSH2 0x14A8 JUMP JUMPDEST PUSH2 0x4D2 JUMP JUMPDEST PUSH1 0x40 MLOAD PUSH1 0x1 PUSH1 0x1 PUSH1 0xA0 SHL SUB SWAP1 SWAP2 AND DUP2 MSTORE PUSH1 0x20 ADD PUSH2 0x159 JUMP JUMPDEST PUSH1 0x1 SLOAD PUSH2 0x14F JUMP JUMPDEST PUSH2 0x144 PUSH2 0x1C3 CALLDATASIZE PUSH1 0x4 PUSH2 0x14C1 JUMP JUMPDEST PUSH2 0x4FC JUMP JUMPDEST PUSH2 0x14F PUSH2 0x1D6 CALLDATASIZE PUSH1 0x4 PUSH2 0x155C JUMP JUMPDEST PUSH1 0x1 PUSH1 0x1 PUSH1 0xA0 SHL SUB SWAP3 DUP4 AND PUSH1 0x0 SWAP1 DUP2 MSTORE PUSH1 0x7 PUSH1 0x20 SWAP1 DUP2 MSTORE PUSH1 0x40 DUP1 DUP4 KECCAK256 SWAP5 DUP4 MSTORE SWAP4 DUP2 MSTORE DUP4 DUP3 KECCAK256 SWAP3 SWAP1 SWAP5 AND DUP2 MSTORE SWAP3 MSTORE SWAP1 KECCAK256 SLOAD SWAP1 JUMP JUMPDEST PUSH2 0x21C PUSH2 0x217 CALLDATASIZE PUSH1 0x4 PUSH2 0x159E JUMP JUMPDEST PUSH2 0x646 JUMP JUMPDEST PUSH1 0x40 DUP1 MLOAD SWAP3 DUP4 MSTORE PUSH1 0x20 DUP4 ADD SWAP2 SWAP1 SWAP2 MSTORE ADD PUSH2 0x159 JUMP JUMPDEST PUSH2 0x144 PUSH2 0x23F CALLDATASIZE PUSH1 0x4 PUSH2 0x148B JUMP JUMPDEST PUSH2 0x69D JUMP JUMPDEST PUSH1 0x5 SLOAD PUSH2 0x195 SWAP1 PUSH1 0x1 PUSH1 0x1 PUSH1 0xA0 SHL SUB AND DUP2 JUMP JUMPDEST PUSH2 0x144 PUSH2 0x724 JUMP JUMPDEST PUSH2 0x144 PUSH2 0x26D CALLDATASIZE PUSH1 0x4 PUSH2 0x15E6 JUMP JUMPDEST PUSH2 0x75A JUMP JUMPDEST PUSH2 0x285 PUSH2 0x280 CALLDATASIZE PUSH1 0x4 PUSH2 0x148B JUMP JUMPDEST PUSH2 0x82B JUMP JUMPDEST PUSH1 0x40 MLOAD SWAP1 ISZERO ISZERO DUP2 MSTORE PUSH1 0x20 ADD PUSH2 0x159 JUMP JUMPDEST PUSH2 0x144 PUSH2 0x2A3 CALLDATASIZE PUSH1 0x4 PUSH2 0x14C1 JUMP JUMPDEST PUSH2 0x887 JUMP JUMPDEST PUSH2 0x14F PUSH1 0x3 SLOAD DUP2 JUMP JUMPDEST PUSH1 0x0 SLOAD PUSH1 0x1 PUSH1 0x1 PUSH1 0xA0 SHL SUB AND PUSH2 0x195 JUMP JUMPDEST PUSH2 0x14F PUSH2 0x2D0 CALLDATASIZE PUSH1 0x4 PUSH2 0x161B JUMP JUMPDEST PUSH2 0xA8C JUMP JUMPDEST PUSH2 0x285 PUSH2 0x2E3 CALLDATASIZE PUSH1 0x4 PUSH2 0x159E JUMP JUMPDEST PUSH1 0x8 PUSH1 0x20 SWAP1 DUP2 MSTORE PUSH1 0x0 SWAP5 DUP6 MSTORE PUSH1 0x40 DUP1 DUP7 KECCAK256 DUP3 MSTORE SWAP4 DUP6 MSTORE DUP4 DUP6 KECCAK256 DUP2 MSTORE SWAP2 DUP5 MSTORE DUP3 DUP5 KECCAK256 SWAP1 SWAP2 MSTORE DUP3 MSTORE SWAP1 KECCAK256 SLOAD PUSH1 0xFF AND DUP2 JUMP JUMPDEST PUSH2 0x144 PUSH2 0x320 CALLDATASIZE PUSH1 0x4 PUSH2 0x148B JUMP JUMPDEST PUSH2 0xBB5 JUMP JUMPDEST PUSH1 0x6 SLOAD PUSH2 0x195 SWAP1 PUSH1 0x1 PUSH1 0x1 PUSH1 0xA0 SHL SUB AND DUP2 JUMP JUMPDEST PUSH1 0x1 PUSH1 0x1 PUSH1 0xA0 SHL SUB DUP1 DUP12 AND PUSH1 0x0 SWAP1 DUP2 MSTORE PUSH1 0x8 PUSH1 0x20 SWAP1 DUP2 MSTORE PUSH1 0x40 DUP1 DUP4 KECCAK256 DUP14 DUP5 MSTORE DUP3 MSTORE DUP1 DUP4 KECCAK256 SWAP4 DUP13 AND DUP4 MSTORE SWAP3 DUP2 MSTORE DUP3 DUP3 KECCAK256 DUP10 DUP4 MSTORE SWAP1 MSTORE KECCAK256 SLOAD PUSH1 0xFF AND ISZERO PUSH2 0x37B JUMPI PUSH1 0x0 DUP1 REVERT JUMPDEST PUSH1 0x40 DUP1 MLOAD PUSH1 0x20 DUP1 DUP3 ADD DUP13 SWAP1 MSTORE PUSH12 0xFFFFFFFFFFFFFFFFFFFFFFFF NOT PUSH1 0x60 DUP15 DUP2 SHL DUP3 AND DUP5 DUP7 ADD MSTORE CHAINID PUSH1 0x54 DUP6 ADD MSTORE DUP13 DUP2 SHL DUP3 AND PUSH1 0x74 DUP6 ADD MSTORE PUSH1 0x88 DUP5 ADD DUP13 SWAP1 MSTORE PUSH1 0xA8 DUP5 ADD DUP12 SWAP1 MSTORE DUP10 ISZERO ISZERO PUSH1 0xF8 SHL PUSH1 0xC8 DUP6 ADD MSTORE DUP9 SWAP1 SHL AND PUSH1 0xC9 DUP4 ADD MSTORE DUP3 MLOAD DUP1 DUP4 SUB PUSH1 0xBD ADD DUP2 MSTORE PUSH1 0xDD DUP4 ADD SWAP1 SWAP4 MSTORE DUP3 MLOAD SWAP3 ADD SWAP2 SWAP1 SWAP2 KECCAK256 SWAP1 PUSH1 0x0 SWAP1 PUSH2 0x3FD SWAP1 DUP4 SWAP1 PUSH1 0xFD ADD PUSH2 0x1665 JUMP JUMPDEST PUSH1 0x40 MLOAD PUSH1 0x20 DUP2 DUP4 SUB SUB DUP2 MSTORE SWAP1 PUSH1 0x40 MSTORE DUP1 MLOAD SWAP1 PUSH1 0x20 ADD KECCAK256 SWAP1 POP PUSH2 0x421 DUP2 DUP7 DUP7 DUP7 PUSH2 0xC50 JUMP JUMPDEST PUSH1 0x1 PUSH1 0x1 PUSH1 0xA0 SHL SUB DUP1 DUP14 AND PUSH1 0x0 SWAP1 DUP2 MSTORE PUSH1 0x8 PUSH1 0x20 SWAP1 DUP2 MSTORE PUSH1 0x40 DUP1 DUP4 KECCAK256 DUP16 DUP5 MSTORE DUP3 MSTORE DUP1 DUP4 KECCAK256 SWAP4 DUP15 AND DUP4 MSTORE SWAP3 DUP2 MSTORE DUP3 DUP3 KECCAK256 DUP12 DUP4 MSTORE SWAP1 MSTORE KECCAK256 DUP1 SLOAD PUSH1 0xFF NOT AND PUSH1 0x1 OR SWAP1 SSTORE PUSH2 0x46D DUP11 DUP11 DUP10 DUP10 PUSH2 0xD02 JUMP JUMPDEST DUP10 PUSH1 0x1 PUSH1 0x1 PUSH1 0xA0 SHL SUB AND DUP12 DUP14 PUSH1 0x1 PUSH1 0x1 PUSH1 0xA0 SHL SUB AND PUSH32 0xDA4355117EC65BE2104E66A73B0D7E9DE15423BD5E7D494D50539DD066D0FBDE DUP13 DUP13 PUSH1 0x40 MLOAD PUSH2 0x4BC SWAP3 SWAP2 SWAP1 SWAP2 DUP3 MSTORE PUSH1 0x20 DUP3 ADD MSTORE PUSH1 0x40 ADD SWAP1 JUMP JUMPDEST PUSH1 0x40 MLOAD DUP1 SWAP2 SUB SWAP1 LOG4 POP POP POP POP POP POP POP POP POP POP POP POP JUMP JUMPDEST PUSH1 0x1 DUP2 DUP2 SLOAD DUP2 LT PUSH2 0x4E2 JUMPI PUSH1 0x0 DUP1 REVERT JUMPDEST PUSH1 0x0 SWAP2 DUP3 MSTORE PUSH1 0x20 SWAP1 SWAP2 KECCAK256 ADD SLOAD PUSH1 0x1 PUSH1 0x1 PUSH1 0xA0 SHL SUB AND SWAP1 POP DUP2 JUMP JUMPDEST PUSH1 0x1 PUSH1 0x1 PUSH1 0xA0 SHL SUB DUP5 AND PUSH2 0x50F JUMPI PUSH1 0x0 DUP1 REVERT JUMPDEST PUSH2 0x518 DUP5 PUSH2 0x82B JUMP JUMPDEST ISZERO PUSH2 0x522 JUMPI PUSH1 0x0 DUP1 REVERT JUMPDEST PUSH1 0x3 DUP1 SLOAD PUSH1 0x0 SWAP2 CHAINID SWAP2 SWAP1 DUP4 PUSH2 0x536 DUP4 PUSH2 0x16AC JUMP JUMPDEST SWAP1 SWAP2 SSTORE POP PUSH1 0x40 MLOAD PUSH9 0x30B23229B4B3B732B9 PUSH1 0xB9 SHL PUSH1 0x20 DUP3 ADD MSTORE PUSH1 0x29 DUP2 ADD SWAP3 SWAP1 SWAP3 MSTORE PUSH1 0x49 DUP3 ADD MSTORE PUSH1 0x69 ADD PUSH1 0x40 MLOAD PUSH1 0x20 DUP2 DUP4 SUB SUB DUP2 MSTORE SWAP1 PUSH1 0x40 MSTORE DUP1 MLOAD SWAP1 PUSH1 0x20 ADD KECCAK256 SWAP1 POP PUSH1 0x0 DUP2 PUSH1 0x40 MLOAD PUSH1 0x20 ADD PUSH2 0x58A SWAP2 SWAP1 PUSH2 0x1665 JUMP JUMPDEST PUSH1 0x40 MLOAD PUSH1 0x20 DUP2 DUP4 SUB SUB DUP2 MSTORE SWAP1 PUSH1 0x40 MSTORE DUP1 MLOAD SWAP1 PUSH1 0x20 ADD KECCAK256 SWAP1 POP PUSH2 0x5AE DUP2 DUP7 DUP7 DUP7 PUSH2 0xC50 JUMP JUMPDEST PUSH1 0x1 DUP1 SLOAD PUSH1 0x1 PUSH1 0x1 PUSH1 0xA0 SHL SUB DUP9 AND PUSH1 0x0 DUP2 DUP2 MSTORE PUSH1 0x2 PUSH1 0x20 SWAP1 DUP2 MSTORE PUSH1 0x40 DUP1 DUP4 KECCAK256 DUP6 SWAP1 SSTORE DUP5 DUP7 ADD DUP7 SSTORE SWAP5 SWAP1 SWAP2 MSTORE PUSH32 0xB10E2D527612073B26EECDFD717E6A320CF44B4AFAC2B0732D9FCBE2B7FA0CF6 SWAP1 SWAP3 ADD DUP1 SLOAD PUSH1 0x1 PUSH1 0x1 PUSH1 0xA0 SHL SUB NOT AND DUP3 OR SWAP1 SSTORE SWAP2 MLOAD SWAP2 DUP3 MSTORE PUSH32 0x637C77A2D598A51D085D4A2413332C45A235A25EE855BF3DFCDC2C8FCF02860F SWAP2 ADD JUMPDEST PUSH1 0x40 MLOAD DUP1 SWAP2 SUB SWAP1 LOG1 POP POP POP POP POP POP JUMP JUMPDEST PUSH1 0x7 PUSH1 0x20 MSTORE DUP4 PUSH1 0x0 MSTORE PUSH1 0x40 PUSH1 0x0 KECCAK256 PUSH1 0x20 MSTORE DUP3 PUSH1 0x0 MSTORE PUSH1 0x40 PUSH1 0x0 KECCAK256 PUSH1 0x20 MSTORE DUP2 PUSH1 0x0 MSTORE PUSH1 0x40 PUSH1 0x0 KECCAK256 DUP2 DUP2 SLOAD DUP2 LT PUSH2 0x67A JUMPI PUSH1 0x0 DUP1 REVERT JUMPDEST PUSH1 0x0 SWAP2 DUP3 MSTORE PUSH1 0x20 SWAP1 SWAP2 KECCAK256 PUSH1 0x2 SWAP1 SWAP2 MUL ADD DUP1 SLOAD PUSH1 0x1 SWAP1 SWAP2 ADD SLOAD SWAP1 SWAP5 POP SWAP3 POP DUP5 SWAP2 POP POP JUMP JUMPDEST PUSH1 0x0 SLOAD PUSH1 0x1 PUSH1 0x1 PUSH1 0xA0 SHL SUB AND CALLER EQ PUSH2 0x6D0 JUMPI PUSH1 0x40 MLOAD PUSH3 0x461BCD PUSH1 0xE5 SHL DUP2 MSTORE PUSH1 0x4 ADD PUSH2 0x6C7 SWAP1 PUSH2 0x16C7 JUMP JUMPDEST PUSH1 0x40 MLOAD DUP1 SWAP2 SUB SWAP1 REVERT JUMPDEST PUSH1 0x5 DUP1 SLOAD PUSH1 0x1 PUSH1 0x1 PUSH1 0xA0 SHL SUB NOT AND PUSH1 0x1 PUSH1 0x1 PUSH1 0xA0 SHL SUB DUP4 AND SWAP1 DUP2 OR SWAP1 SWAP2 SSTORE PUSH1 0x40 MLOAD SWAP1 DUP2 MSTORE PUSH32 0xA9833F88E240D8EB1B2A6DBAF83B80884401CE7F7A972A9352538D966E1BA627 SWAP1 PUSH1 0x20 ADD PUSH1 0x40 MLOAD DUP1 SWAP2 SUB SWAP1 LOG1 POP JUMP JUMPDEST PUSH1 0x0 SLOAD PUSH1 0x1 PUSH1 0x1 PUSH1 0xA0 SHL SUB AND CALLER EQ PUSH2 0x74E JUMPI PUSH1 0x40 MLOAD PUSH3 0x461BCD PUSH1 0xE5 SHL DUP2 MSTORE PUSH1 0x4 ADD PUSH2 0x6C7 SWAP1 PUSH2 0x16C7 JUMP JUMPDEST PUSH2 0x758 PUSH1 0x0 PUSH2 0xE3E JUMP JUMPDEST JUMP JUMPDEST PUSH1 0x0 DUP5 GT PUSH2 0x767 JUMPI PUSH1 0x0 DUP1 REVERT JUMPDEST PUSH1 0x3 DUP1 SLOAD PUSH1 0x0 SWAP2 CHAINID SWAP2 SWAP1 DUP4 PUSH2 0x77B DUP4 PUSH2 0x16AC JUMP JUMPDEST SWAP1 SWAP2 SSTORE POP PUSH1 0x40 MLOAD PUSH12 0x75706461746551756F72756D PUSH1 0xA0 SHL PUSH1 0x20 DUP3 ADD MSTORE PUSH1 0x2C DUP2 ADD SWAP3 SWAP1 SWAP3 MSTORE PUSH1 0x4C DUP3 ADD MSTORE PUSH1 0x6C ADD PUSH1 0x40 MLOAD PUSH1 0x20 DUP2 DUP4 SUB SUB DUP2 MSTORE SWAP1 PUSH1 0x40 MSTORE DUP1 MLOAD SWAP1 PUSH1 0x20 ADD KECCAK256 SWAP1 POP PUSH1 0x0 DUP2 PUSH1 0x40 MLOAD PUSH1 0x20 ADD PUSH2 0x7D2 SWAP2 SWAP1 PUSH2 0x1665 JUMP JUMPDEST PUSH1 0x40 MLOAD PUSH1 0x20 DUP2 DUP4 SUB SUB DUP2 MSTORE SWAP1 PUSH1 0x40 MSTORE DUP1 MLOAD SWAP1 PUSH1 0x20 ADD KECCAK256 SWAP1 POP PUSH2 0x7F6 DUP2 DUP7 DUP7 DUP7 PUSH2 0xC50 JUMP JUMPDEST PUSH1 0x4 DUP7 SWAP1 SSTORE PUSH1 0x40 MLOAD DUP7 DUP2 MSTORE PUSH32 0x5CB3F38DE4DD795897ED02809E482378027C600F566D6E4BD14DFE3A44A6D737 SWAP1 PUSH1 0x20 ADD PUSH2 0x636 JUMP JUMPDEST PUSH1 0x1 PUSH1 0x1 PUSH1 0xA0 SHL SUB DUP2 AND PUSH1 0x0 SWAP1 DUP2 MSTORE PUSH1 0x2 PUSH1 0x20 MSTORE PUSH1 0x40 DUP2 KECCAK256 SLOAD ISZERO ISZERO DUP1 PUSH2 0x881 JUMPI POP DUP2 PUSH1 0x1 PUSH1 0x1 PUSH1 0xA0 SHL SUB AND PUSH1 0x1 PUSH1 0x0 DUP2 SLOAD DUP2 LT PUSH2 0x86A JUMPI PUSH2 0x86A PUSH2 0x16FC JUMP JUMPDEST PUSH1 0x0 SWAP2 DUP3 MSTORE PUSH1 0x20 SWAP1 SWAP2 KECCAK256 ADD SLOAD PUSH1 0x1 PUSH1 0x1 PUSH1 0xA0 SHL SUB AND EQ JUMPDEST SWAP3 SWAP2 POP POP JUMP JUMPDEST PUSH1 0x1 PUSH1 0x1 PUSH1 0xA0 SHL SUB DUP5 AND PUSH2 0x89A JUMPI PUSH1 0x0 DUP1 REVERT JUMPDEST PUSH2 0x8A3 DUP5 PUSH2 0x82B JUMP JUMPDEST PUSH2 0x8AC JUMPI PUSH1 0x0 DUP1 REVERT JUMPDEST PUSH1 0x3 DUP1 SLOAD PUSH1 0x0 SWAP2 CHAINID SWAP2 SWAP1 DUP4 PUSH2 0x8C0 DUP4 PUSH2 0x16AC JUMP JUMPDEST SWAP1 SWAP2 SSTORE POP PUSH1 0x40 MLOAD PUSH12 0x3932B6B7BB32A9B4B3B732B9 PUSH1 0xA1 SHL PUSH1 0x20 DUP3 ADD MSTORE PUSH1 0x2C DUP2 ADD SWAP3 SWAP1 SWAP3 MSTORE PUSH1 0x4C DUP3 ADD MSTORE PUSH1 0x6C ADD PUSH1 0x40 MLOAD PUSH1 0x20 DUP2 DUP4 SUB SUB DUP2 MSTORE SWAP1 PUSH1 0x40 MSTORE DUP1 MLOAD SWAP1 PUSH1 0x20 ADD KECCAK256 SWAP1 POP PUSH1 0x0 DUP2 PUSH1 0x40 MLOAD PUSH1 0x20 ADD PUSH2 0x917 SWAP2 SWAP1 PUSH2 0x1665 JUMP JUMPDEST PUSH1 0x40 MLOAD PUSH1 0x20 DUP2 DUP4 SUB SUB DUP2 MSTORE SWAP1 PUSH1 0x40 MSTORE DUP1 MLOAD SWAP1 PUSH1 0x20 ADD KECCAK256 SWAP1 POP PUSH2 0x93B DUP2 DUP7 DUP7 DUP7 PUSH2 0xC50 JUMP JUMPDEST PUSH1 0x0 PUSH2 0x951 PUSH1 0x1 PUSH2 0x94B PUSH1 0x1 SLOAD SWAP1 JUMP JUMPDEST SWAP1 PUSH2 0xE8E JUMP JUMPDEST SWAP1 POP PUSH1 0x4 SLOAD DUP2 LT ISZERO PUSH2 0x962 JUMPI PUSH1 0x0 DUP1 REVERT JUMPDEST PUSH1 0x1 PUSH1 0x1 PUSH1 0xA0 SHL SUB DUP8 AND PUSH1 0x0 SWAP1 DUP2 MSTORE PUSH1 0x2 PUSH1 0x20 MSTORE PUSH1 0x40 SWAP1 KECCAK256 SLOAD DUP2 DUP2 EQ PUSH2 0xA01 JUMPI PUSH1 0x0 PUSH1 0x1 DUP4 DUP2 SLOAD DUP2 LT PUSH2 0x997 JUMPI PUSH2 0x997 PUSH2 0x16FC JUMP JUMPDEST PUSH1 0x0 SWAP2 DUP3 MSTORE PUSH1 0x20 SWAP1 SWAP2 KECCAK256 ADD SLOAD PUSH1 0x1 DUP1 SLOAD PUSH1 0x1 PUSH1 0x1 PUSH1 0xA0 SHL SUB SWAP1 SWAP3 AND SWAP3 POP DUP3 SWAP2 DUP5 SWAP1 DUP2 LT PUSH2 0x9C6 JUMPI PUSH2 0x9C6 PUSH2 0x16FC JUMP JUMPDEST PUSH1 0x0 SWAP2 DUP3 MSTORE PUSH1 0x20 DUP1 DUP4 KECCAK256 SWAP2 SWAP1 SWAP2 ADD DUP1 SLOAD PUSH1 0x1 PUSH1 0x1 PUSH1 0xA0 SHL SUB NOT AND PUSH1 0x1 PUSH1 0x1 PUSH1 0xA0 SHL SUB SWAP5 DUP6 AND OR SWAP1 SSTORE SWAP3 SWAP1 SWAP2 AND DUP2 MSTORE PUSH1 0x2 SWAP1 SWAP2 MSTORE PUSH1 0x40 SWAP1 KECCAK256 DUP2 SWAP1 SSTORE JUMPDEST PUSH1 0x1 DUP1 SLOAD DUP1 PUSH2 0xA12 JUMPI PUSH2 0xA12 PUSH2 0x1712 JUMP JUMPDEST PUSH1 0x0 DUP3 DUP2 MSTORE PUSH1 0x20 DUP1 DUP3 KECCAK256 PUSH1 0x0 NOT SWAP1 DUP5 ADD DUP2 ADD DUP1 SLOAD PUSH1 0x1 PUSH1 0x1 PUSH1 0xA0 SHL SUB NOT AND SWAP1 SSTORE SWAP1 SWAP3 ADD SWAP1 SWAP3 SSTORE PUSH1 0x1 PUSH1 0x1 PUSH1 0xA0 SHL SUB DUP11 AND DUP1 DUP4 MSTORE PUSH1 0x2 DUP3 MSTORE PUSH1 0x40 DUP1 DUP5 KECCAK256 SWAP4 SWAP1 SWAP4 SSTORE SWAP2 MLOAD SWAP2 DUP3 MSTORE PUSH32 0x1803740EF72FC16E647C10FE2D31CF61A1578081960C2E3FB7F5AA957E82F550 SWAP2 ADD PUSH1 0x40 MLOAD DUP1 SWAP2 SUB SWAP1 LOG1 POP POP POP POP POP POP POP POP JUMP JUMPDEST CALLER PUSH1 0x0 SWAP1 DUP2 MSTORE PUSH1 0x7 PUSH1 0x20 SWAP1 DUP2 MSTORE PUSH1 0x40 DUP1 DUP4 KECCAK256 DUP8 DUP5 MSTORE DUP3 MSTORE DUP1 DUP4 KECCAK256 PUSH1 0x1 PUSH1 0x1 PUSH1 0xA0 SHL SUB DUP8 DUP2 AND DUP6 MSTORE DUP2 DUP5 MSTORE DUP3 DUP6 KECCAK256 DUP1 SLOAD SWAP3 DUP6 MSTORE DUP4 MLOAD DUP1 DUP6 ADD DUP6 MSTORE DUP9 DUP2 MSTORE NUMBER DUP2 DUP8 ADD SWAP1 DUP2 MSTORE PUSH1 0x1 DUP1 DUP7 ADD DUP5 SSTORE SWAP3 DUP9 MSTORE DUP7 DUP9 KECCAK256 SWAP2 MLOAD PUSH1 0x2 DUP7 MUL SWAP1 SWAP3 ADD SWAP2 DUP3 SSTORE MLOAD SWAP2 ADD SSTORE PUSH1 0x5 SLOAD DUP4 MLOAD PUSH4 0x42D67503 PUSH1 0xE1 SHL DUP2 MSTORE SWAP4 MLOAD SWAP3 SWAP6 SWAP5 SWAP2 AND SWAP3 PUSH4 0x85ACEA06 SWAP3 PUSH1 0x4 DUP1 DUP4 ADD SWAP4 SWAP3 DUP3 SWAP1 SUB ADD DUP2 DUP7 GAS STATICCALL ISZERO DUP1 ISZERO PUSH2 0xB29 JUMPI RETURNDATASIZE PUSH1 0x0 DUP1 RETURNDATACOPY RETURNDATASIZE PUSH1 0x0 REVERT JUMPDEST POP POP POP POP PUSH1 0x40 MLOAD RETURNDATASIZE PUSH1 0x1F NOT PUSH1 0x1F DUP3 ADD AND DUP3 ADD DUP1 PUSH1 0x40 MSTORE POP DUP2 ADD SWAP1 PUSH2 0xB4D SWAP2 SWAP1 PUSH2 0x1728 JUMP JUMPDEST SWAP1 POP PUSH2 0xB5B CALLER DUP6 DUP4 DUP7 PUSH2 0xEA1 JUMP JUMPDEST PUSH1 0x40 DUP1 MLOAD DUP6 DUP2 MSTORE PUSH1 0x20 DUP2 ADD DUP5 SWAP1 MSTORE DUP3 ISZERO ISZERO DUP2 DUP4 ADD MSTORE SWAP1 MLOAD PUSH1 0x1 PUSH1 0x1 PUSH1 0xA0 SHL SUB DUP8 AND SWAP2 DUP9 SWAP2 CALLER SWAP2 PUSH32 0xEC47C11127A4FC4EEA1866690010369BC0F14D7C82E42C7590841F88440D569F SWAP2 SWAP1 DUP2 SWAP1 SUB PUSH1 0x60 ADD SWAP1 LOG4 POP SWAP5 SWAP4 POP POP POP POP JUMP JUMPDEST PUSH1 0x0 SLOAD PUSH1 0x1 PUSH1 0x1 PUSH1 0xA0 SHL SUB AND CALLER EQ PUSH2 0xBDF JUMPI PUSH1 0x40 MLOAD PUSH3 0x461BCD PUSH1 0xE5 SHL DUP2 MSTORE PUSH1 0x4 ADD PUSH2 0x6C7 SWAP1 PUSH2 0x16C7 JUMP JUMPDEST PUSH1 0x1 PUSH1 0x1 PUSH1 0xA0 SHL SUB DUP2 AND PUSH2 0xC44 JUMPI PUSH1 0x40 MLOAD PUSH3 0x461BCD PUSH1 0xE5 SHL DUP2 MSTORE PUSH1 0x20 PUSH1 0x4 DUP3 ADD MSTORE PUSH1 0x26 PUSH1 0x24 DUP3 ADD MSTORE PUSH32 0x4F776E61626C653A206E6577206F776E657220697320746865207A65726F2061 PUSH1 0x44 DUP3 ADD MSTORE PUSH6 0x646472657373 PUSH1 0xD0 SHL PUSH1 0x64 DUP3 ADD MSTORE PUSH1 0x84 ADD PUSH2 0x6C7 JUMP JUMPDEST PUSH2 0xC4D DUP2 PUSH2 0xE3E JUMP JUMPDEST POP JUMP JUMPDEST DUP3 MLOAD DUP3 MLOAD DUP2 EQ DUP1 ISZERO PUSH2 0xC62 JUMPI POP DUP2 MLOAD DUP2 EQ JUMPDEST PUSH2 0xC6B JUMPI PUSH1 0x0 DUP1 REVERT JUMPDEST PUSH1 0x4 SLOAD DUP2 LT ISZERO PUSH2 0xC7A JUMPI PUSH1 0x0 DUP1 REVERT JUMPDEST PUSH1 0x0 JUMPDEST DUP2 DUP2 LT ISZERO PUSH2 0xCFA JUMPI PUSH2 0xCDF PUSH2 0x280 DUP8 DUP8 DUP5 DUP2 MLOAD DUP2 LT PUSH2 0xC9E JUMPI PUSH2 0xC9E PUSH2 0x16FC JUMP JUMPDEST PUSH1 0x20 MUL PUSH1 0x20 ADD ADD MLOAD DUP8 DUP6 DUP2 MLOAD DUP2 LT PUSH2 0xCB8 JUMPI PUSH2 0xCB8 PUSH2 0x16FC JUMP JUMPDEST PUSH1 0x20 MUL PUSH1 0x20 ADD ADD MLOAD DUP8 DUP7 DUP2 MLOAD DUP2 LT PUSH2 0xCD2 JUMPI PUSH2 0xCD2 PUSH2 0x16FC JUMP JUMPDEST PUSH1 0x20 MUL PUSH1 0x20 ADD ADD MLOAD PUSH2 0xF99 JUMP JUMPDEST PUSH2 0xCE8 JUMPI PUSH1 0x0 DUP1 REVERT JUMPDEST DUP1 PUSH2 0xCF2 DUP2 PUSH2 0x16AC JUMP JUMPDEST SWAP2 POP POP PUSH2 0xC7D JUMP JUMPDEST POP POP POP POP POP POP JUMP JUMPDEST PUSH1 0x0 DUP3 PUSH2 0xDB2 JUMPI PUSH1 0x0 PUSH2 0xD16 DUP7 DUP7 DUP6 PUSH2 0x111E JUMP JUMPDEST SWAP1 SWAP3 POP SWAP1 POP DUP2 ISZERO DUP1 ISZERO SWAP1 PUSH2 0xD32 JUMPI POP PUSH1 0x1 PUSH1 0x1 PUSH1 0xA0 SHL SUB DUP2 AND ISZERO ISZERO JUMPDEST ISZERO PUSH2 0xDB0 JUMPI PUSH1 0x6 SLOAD PUSH1 0x40 MLOAD PUSH4 0xA9059CBB PUSH1 0xE0 SHL DUP2 MSTORE PUSH1 0x1 PUSH1 0x1 PUSH1 0xA0 SHL SUB DUP4 DUP2 AND PUSH1 0x4 DUP4 ADD MSTORE PUSH1 0x24 DUP3 ADD DUP6 SWAP1 MSTORE SWAP1 SWAP2 AND SWAP1 PUSH4 0xA9059CBB SWAP1 PUSH1 0x44 ADD PUSH1 0x20 PUSH1 0x40 MLOAD DUP1 DUP4 SUB DUP2 PUSH1 0x0 DUP8 GAS CALL ISZERO DUP1 ISZERO PUSH2 0xD8A JUMPI RETURNDATASIZE PUSH1 0x0 DUP1 RETURNDATACOPY RETURNDATASIZE PUSH1 0x0 REVERT JUMPDEST POP POP POP POP PUSH1 0x40 MLOAD RETURNDATASIZE PUSH1 0x1F NOT PUSH1 0x1F DUP3 ADD AND DUP3 ADD DUP1 PUSH1 0x40 MSTORE POP DUP2 ADD SWAP1 PUSH2 0xDAE SWAP2 SWAP1 PUSH2 0x1728 JUMP JUMPDEST POP JUMPDEST POP JUMPDEST PUSH1 0x6 SLOAD PUSH1 0x1 PUSH1 0x1 PUSH1 0xA0 SHL SUB AND PUSH4 0xA9059CBB DUP7 PUSH2 0xDCE DUP8 DUP6 PUSH2 0xE8E JUMP JUMPDEST PUSH1 0x40 MLOAD PUSH1 0x1 PUSH1 0x1 PUSH1 0xE0 SHL SUB NOT PUSH1 0xE0 DUP6 SWAP1 SHL AND DUP2 MSTORE PUSH1 0x1 PUSH1 0x1 PUSH1 0xA0 SHL SUB SWAP1 SWAP3 AND PUSH1 0x4 DUP4 ADD MSTORE PUSH1 0x24 DUP3 ADD MSTORE PUSH1 0x44 ADD JUMPDEST PUSH1 0x20 PUSH1 0x40 MLOAD DUP1 DUP4 SUB DUP2 PUSH1 0x0 DUP8 GAS CALL ISZERO DUP1 ISZERO PUSH2 0xE1A JUMPI RETURNDATASIZE PUSH1 0x0 DUP1 RETURNDATACOPY RETURNDATASIZE PUSH1 0x0 REVERT JUMPDEST POP POP POP POP PUSH1 0x40 MLOAD RETURNDATASIZE PUSH1 0x1F NOT PUSH1 0x1F DUP3 ADD AND DUP3 ADD DUP1 PUSH1 0x40 MSTORE POP DUP2 ADD SWAP1 PUSH2 0xCFA SWAP2 SWAP1 PUSH2 0x1728 JUMP JUMPDEST PUSH1 0x0 DUP1 SLOAD PUSH1 0x1 PUSH1 0x1 PUSH1 0xA0 SHL SUB DUP4 DUP2 AND PUSH1 0x1 PUSH1 0x1 PUSH1 0xA0 SHL SUB NOT DUP4 AND DUP2 OR DUP5 SSTORE PUSH1 0x40 MLOAD SWAP2 SWAP1 SWAP3 AND SWAP3 DUP4 SWAP2 PUSH32 0x8BE0079C531659141344CD1FD0A4F28419497F9722A3DAAFE3B4186F6B6457E0 SWAP2 SWAP1 LOG3 POP POP JUMP JUMPDEST PUSH1 0x0 PUSH2 0xE9A DUP3 DUP5 PUSH2 0x1745 JUMP JUMPDEST SWAP4 SWAP3 POP POP POP JUMP JUMPDEST PUSH1 0x0 DUP3 ISZERO PUSH2 0xF5A JUMPI PUSH1 0x0 PUSH2 0xEB6 DUP7 DUP7 DUP6 PUSH2 0x111E JUMP JUMPDEST SWAP1 SWAP3 POP SWAP1 POP DUP2 ISZERO DUP1 ISZERO SWAP1 PUSH2 0xED2 JUMPI POP PUSH1 0x1 PUSH1 0x1 PUSH1 0xA0 SHL SUB DUP2 AND ISZERO ISZERO JUMPDEST ISZERO PUSH2 0xF58 JUMPI PUSH1 0x6 SLOAD PUSH1 0x40 MLOAD PUSH4 0x23B872DD PUSH1 0xE0 SHL DUP2 MSTORE PUSH1 0x1 PUSH1 0x1 PUSH1 0xA0 SHL SUB DUP9 DUP2 AND PUSH1 0x4 DUP4 ADD MSTORE DUP4 DUP2 AND PUSH1 0x24 DUP4 ADD MSTORE PUSH1 0x44 DUP3 ADD DUP6 SWAP1 MSTORE SWAP1 SWAP2 AND SWAP1 PUSH4 0x23B872DD SWAP1 PUSH1 0x64 ADD PUSH1 0x20 PUSH1 0x40 MLOAD DUP1 DUP4 SUB DUP2 PUSH1 0x0 DUP8 GAS CALL ISZERO DUP1 ISZERO PUSH2 0xF32 JUMPI RETURNDATASIZE PUSH1 0x0 DUP1 RETURNDATACOPY RETURNDATASIZE PUSH1 0x0 REVERT JUMPDEST POP POP POP POP PUSH1 0x40 MLOAD RETURNDATASIZE PUSH1 0x1F NOT PUSH1 0x1F DUP3 ADD AND DUP3 ADD DUP1 PUSH1 0x40 MSTORE POP DUP2 ADD SWAP1 PUSH2 0xF56 SWAP2 SWAP1 PUSH2 0x1728 JUMP JUMPDEST POP JUMPDEST POP JUMPDEST PUSH1 0x6 SLOAD PUSH1 0x40 MLOAD PUSH4 0x23B872DD PUSH1 0xE0 SHL DUP2 MSTORE PUSH1 0x1 PUSH1 0x1 PUSH1 0xA0 SHL SUB DUP8 DUP2 AND PUSH1 0x4 DUP4 ADD MSTORE ADDRESS PUSH1 0x24 DUP4 ADD MSTORE PUSH1 0x44 DUP3 ADD DUP8 SWAP1 MSTORE SWAP1 SWAP2 AND SWAP1 PUSH4 0x23B872DD SWAP1 PUSH1 0x64 ADD PUSH2 0xDFB JUMP JUMPDEST PUSH1 0x0 PUSH32 0x7FFFFFFFFFFFFFFFFFFFFFFFFFFFFFFF5D576E7357A4501DDFE92F46681B20A0 DUP3 GT ISZERO PUSH2 0x100B JUMPI PUSH1 0x40 MLOAD PUSH3 0x461BCD PUSH1 0xE5 SHL DUP2 MSTORE PUSH1 0x20 PUSH1 0x4 DUP3 ADD MSTORE PUSH1 0x1B PUSH1 0x24 DUP3 ADD MSTORE PUSH32 0x696E76616C6964207369676E6174757265202773272076616C75650000000000 PUSH1 0x44 DUP3 ADD MSTORE PUSH1 0x64 ADD PUSH2 0x6C7 JUMP JUMPDEST DUP4 PUSH1 0xFF AND PUSH1 0x1B EQ DUP1 PUSH2 0x1020 JUMPI POP DUP4 PUSH1 0xFF AND PUSH1 0x1C EQ JUMPDEST PUSH2 0x106C JUMPI PUSH1 0x40 MLOAD PUSH3 0x461BCD PUSH1 0xE5 SHL DUP2 MSTORE PUSH1 0x20 PUSH1 0x4 DUP3 ADD MSTORE PUSH1 0x1B PUSH1 0x24 DUP3 ADD MSTORE PUSH32 0x696E76616C6964207369676E6174757265202776272076616C75650000000000 PUSH1 0x44 DUP3 ADD MSTORE PUSH1 0x64 ADD PUSH2 0x6C7 JUMP JUMPDEST PUSH1 0x40 DUP1 MLOAD PUSH1 0x0 DUP2 MSTORE PUSH1 0x20 DUP2 ADD DUP1 DUP4 MSTORE DUP8 SWAP1 MSTORE PUSH1 0xFF DUP7 AND SWAP2 DUP2 ADD SWAP2 SWAP1 SWAP2 MSTORE PUSH1 0x60 DUP2 ADD DUP5 SWAP1 MSTORE PUSH1 0x80 DUP2 ADD DUP4 SWAP1 MSTORE PUSH1 0x1 SWAP1 PUSH1 0xA0 ADD PUSH1 0x20 PUSH1 0x40 MLOAD PUSH1 0x20 DUP2 SUB SWAP1 DUP1 DUP5 SUB SWAP1 DUP6 GAS STATICCALL ISZERO DUP1 ISZERO PUSH2 0x10BF JUMPI RETURNDATASIZE PUSH1 0x0 DUP1 RETURNDATACOPY RETURNDATASIZE PUSH1 0x0 REVERT JUMPDEST POP POP PUSH1 0x40 MLOAD PUSH1 0x1F NOT ADD MLOAD SWAP2 POP POP PUSH1 0x1 PUSH1 0x1 PUSH1 0xA0 SHL SUB DUP2 AND PUSH2 0x1116 JUMPI PUSH1 0x40 MLOAD PUSH3 0x461BCD PUSH1 0xE5 SHL DUP2 MSTORE PUSH1 0x20 PUSH1 0x4 DUP3 ADD MSTORE PUSH1 0x11 PUSH1 0x24 DUP3 ADD MSTORE PUSH17 0x696E76616C6964207369676E6174757265 PUSH1 0x78 SHL PUSH1 0x44 DUP3 ADD MSTORE PUSH1 0x64 ADD PUSH2 0x6C7 JUMP JUMPDEST SWAP5 SWAP4 POP POP POP POP JUMP JUMPDEST PUSH1 0x5 SLOAD PUSH1 0x40 MLOAD PUSH4 0xF257FBCB PUSH1 0xE0 SHL DUP2 MSTORE PUSH1 0x1 PUSH1 0x1 PUSH1 0xA0 SHL SUB DUP6 DUP2 AND PUSH1 0x4 DUP4 ADD MSTORE PUSH1 0x24 DUP3 ADD DUP6 SWAP1 MSTORE DUP4 DUP2 AND PUSH1 0x44 DUP4 ADD MSTORE PUSH1 0x0 SWAP3 DUP4 SWAP3 SWAP2 AND SWAP1 PUSH4 0xF257FBCB SWAP1 PUSH1 0x64 ADD PUSH1 0x20 PUSH1 0x40 MLOAD DUP1 DUP4 SUB DUP2 DUP7 GAS STATICCALL ISZERO DUP1 ISZERO PUSH2 0x117B JUMPI RETURNDATASIZE PUSH1 0x0 DUP1 RETURNDATACOPY RETURNDATASIZE PUSH1 0x0 REVERT JUMPDEST POP POP POP POP PUSH1 0x40 MLOAD RETURNDATASIZE PUSH1 0x1F NOT PUSH1 0x1F DUP3 ADD AND DUP3 ADD DUP1 PUSH1 0x40 MSTORE POP DUP2 ADD SWAP1 PUSH2 0x119F SWAP2 SWAP1 PUSH2 0x175C JUMP JUMPDEST SWAP2 POP PUSH1 0x5 PUSH1 0x0 SWAP1 SLOAD SWAP1 PUSH2 0x100 EXP SWAP1 DIV PUSH1 0x1 PUSH1 0x1 PUSH1 0xA0 SHL SUB AND PUSH1 0x1 PUSH1 0x1 PUSH1 0xA0 SHL SUB AND PUSH4 0x64DF049E PUSH1 0x40 MLOAD DUP2 PUSH4 0xFFFFFFFF AND PUSH1 0xE0 SHL DUP2 MSTORE PUSH1 0x4 ADD PUSH1 0x20 PUSH1 0x40 MLOAD DUP1 DUP4 SUB DUP2 DUP7 GAS STATICCALL ISZERO DUP1 ISZERO PUSH2 0x11F4 JUMPI RETURNDATASIZE PUSH1 0x0 DUP1 RETURNDATACOPY RETURNDATASIZE PUSH1 0x0 REVERT JUMPDEST POP POP POP POP PUSH1 0x40 MLOAD RETURNDATASIZE PUSH1 0x1F NOT PUSH1 0x1F DUP3 ADD AND DUP3 ADD DUP1 PUSH1 0x40 MSTORE POP DUP2 ADD SWAP1 PUSH2 0x1218 SWAP2 SWAP1 PUSH2 0x1775 JUMP JUMPDEST SWAP1 POP SWAP4 POP SWAP4 SWAP2 POP POP JUMP JUMPDEST PUSH1 0x1 PUSH1 0x1 PUSH1 0xA0 SHL SUB DUP2 AND DUP2 EQ PUSH2 0xC4D JUMPI PUSH1 0x0 DUP1 REVERT JUMPDEST DUP1 CALLDATALOAD PUSH2 0x1242 DUP2 PUSH2 0x1222 JUMP JUMPDEST SWAP2 SWAP1 POP JUMP JUMPDEST DUP1 ISZERO ISZERO DUP2 EQ PUSH2 0xC4D JUMPI PUSH1 0x0 DUP1 REVERT JUMPDEST DUP1 CALLDATALOAD PUSH2 0x1242 DUP2 PUSH2 0x1247 JUMP JUMPDEST PUSH4 0x4E487B71 PUSH1 0xE0 SHL PUSH1 0x0 MSTORE PUSH1 0x41 PUSH1 0x4 MSTORE PUSH1 0x24 PUSH1 0x0 REVERT JUMPDEST PUSH1 0x40 MLOAD PUSH1 0x1F DUP3 ADD PUSH1 0x1F NOT AND DUP2 ADD PUSH8 0xFFFFFFFFFFFFFFFF DUP2 GT DUP3 DUP3 LT OR ISZERO PUSH2 0x129F JUMPI PUSH2 0x129F PUSH2 0x1260 JUMP JUMPDEST PUSH1 0x40 MSTORE SWAP2 SWAP1 POP JUMP JUMPDEST PUSH1 0x0 PUSH8 0xFFFFFFFFFFFFFFFF DUP3 GT ISZERO PUSH2 0x12C1 JUMPI PUSH2 0x12C1 PUSH2 0x1260 JUMP JUMPDEST POP PUSH1 0x5 SHL PUSH1 0x20 ADD SWAP1 JUMP JUMPDEST PUSH1 0x0 DUP3 PUSH1 0x1F DUP4 ADD SLT PUSH2 0x12DC JUMPI PUSH1 0x0 DUP1 REVERT JUMPDEST DUP2 CALLDATALOAD PUSH1 0x20 PUSH2 0x12F1 PUSH2 0x12EC DUP4 PUSH2 0x12A7 JUMP JUMPDEST PUSH2 0x1276 JUMP JUMPDEST DUP3 DUP2 MSTORE PUSH1 0x5 SWAP3 SWAP1 SWAP3 SHL DUP5 ADD DUP2 ADD SWAP2 DUP2 DUP2 ADD SWAP1 DUP7 DUP5 GT ISZERO PUSH2 0x1310 JUMPI PUSH1 0x0 DUP1 REVERT JUMPDEST DUP3 DUP7 ADD JUMPDEST DUP5 DUP2 LT ISZERO PUSH2 0x133B JUMPI DUP1 CALLDATALOAD PUSH1 0xFF DUP2 AND DUP2 EQ PUSH2 0x132E JUMPI PUSH1 0x0 DUP1 DUP2 REVERT JUMPDEST DUP4 MSTORE SWAP2 DUP4 ADD SWAP2 DUP4 ADD PUSH2 0x1314 JUMP JUMPDEST POP SWAP7 SWAP6 POP POP POP POP POP POP JUMP JUMPDEST PUSH1 0x0 DUP3 PUSH1 0x1F DUP4 ADD SLT PUSH2 0x1357 JUMPI PUSH1 0x0 DUP1 REVERT JUMPDEST DUP2 CALLDATALOAD PUSH1 0x20 PUSH2 0x1367 PUSH2 0x12EC DUP4 PUSH2 0x12A7 JUMP JUMPDEST DUP3 DUP2 MSTORE PUSH1 0x5 SWAP3 SWAP1 SWAP3 SHL DUP5 ADD DUP2 ADD SWAP2 DUP2 DUP2 ADD SWAP1 DUP7 DUP5 GT ISZERO PUSH2 0x1386 JUMPI PUSH1 0x0 DUP1 REVERT JUMPDEST DUP3 DUP7 ADD JUMPDEST DUP5 DUP2 LT ISZERO PUSH2 0x133B JUMPI DUP1 CALLDATALOAD DUP4 MSTORE SWAP2 DUP4 ADD SWAP2 DUP4 ADD PUSH2 0x138A JUMP JUMPDEST PUSH1 0x0 DUP1 PUSH1 0x0 DUP1 PUSH1 0x0 DUP1 PUSH1 0x0 DUP1 PUSH1 0x0 DUP1 PUSH2 0x140 DUP12 DUP14 SUB SLT ISZERO PUSH2 0x13C1 JUMPI PUSH1 0x0 DUP1 REVERT JUMPDEST PUSH2 0x13CA DUP12 PUSH2 0x1237 JUMP JUMPDEST SWAP10 POP PUSH1 0x20 DUP12 ADD CALLDATALOAD SWAP9 POP PUSH2 0x13DF PUSH1 0x40 DUP13 ADD PUSH2 0x1237 JUMP JUMPDEST SWAP8 POP PUSH1 0x60 DUP12 ADD CALLDATALOAD SWAP7 POP PUSH1 0x80 DUP12 ADD CALLDATALOAD SWAP6 POP PUSH2 0x13FB PUSH1 0xA0 DUP13 ADD PUSH2 0x1255 JUMP JUMPDEST SWAP5 POP PUSH2 0x1409 PUSH1 0xC0 DUP13 ADD PUSH2 0x1237 JUMP JUMPDEST SWAP4 POP PUSH1 0xE0 DUP12 ADD CALLDATALOAD PUSH8 0xFFFFFFFFFFFFFFFF DUP1 DUP3 GT ISZERO PUSH2 0x1426 JUMPI PUSH1 0x0 DUP1 REVERT JUMPDEST PUSH2 0x1432 DUP15 DUP4 DUP16 ADD PUSH2 0x12CB JUMP JUMPDEST SWAP5 POP PUSH2 0x100 DUP14 ADD CALLDATALOAD SWAP2 POP DUP1 DUP3 GT ISZERO PUSH2 0x1449 JUMPI PUSH1 0x0 DUP1 REVERT JUMPDEST PUSH2 0x1455 DUP15 DUP4 DUP16 ADD PUSH2 0x1346 JUMP JUMPDEST SWAP4 POP PUSH2 0x120 DUP14 ADD CALLDATALOAD SWAP2 POP DUP1 DUP3 GT ISZERO PUSH2 0x146C JUMPI PUSH1 0x0 DUP1 REVERT JUMPDEST POP PUSH2 0x1479 DUP14 DUP3 DUP15 ADD PUSH2 0x1346 JUMP JUMPDEST SWAP2 POP POP SWAP3 SWAP6 SWAP9 SWAP12 SWAP2 SWAP5 SWAP8 SWAP11 POP SWAP3 SWAP6 SWAP9 POP JUMP JUMPDEST PUSH1 0x0 PUSH1 0x20 DUP3 DUP5 SUB SLT ISZERO PUSH2 0x149D JUMPI PUSH1 0x0 DUP1 REVERT JUMPDEST DUP2 CALLDATALOAD PUSH2 0xE9A DUP2 PUSH2 0x1222 JUMP JUMPDEST PUSH1 0x0 PUSH1 0x20 DUP3 DUP5 SUB SLT ISZERO PUSH2 0x14BA JUMPI PUSH1 0x0 DUP1 REVERT JUMPDEST POP CALLDATALOAD SWAP2 SWAP1 POP JUMP JUMPDEST PUSH1 0x0 DUP1 PUSH1 0x0 DUP1 PUSH1 0x80 DUP6 DUP8 SUB SLT ISZERO PUSH2 0x14D7 JUMPI PUSH1 0x0 DUP1 REVERT JUMPDEST DUP5 CALLDATALOAD PUSH2 0x14E2 DUP2 PUSH2 0x1222 JUMP JUMPDEST SWAP4 POP PUSH1 0x20 DUP6 ADD CALLDATALOAD PUSH8 0xFFFFFFFFFFFFFFFF DUP1 DUP3 GT ISZERO PUSH2 0x14FF JUMPI PUSH1 0x0 DUP1 REVERT JUMPDEST PUSH2 0x150B DUP9 DUP4 DUP10 ADD PUSH2 0x12CB JUMP JUMPDEST SWAP5 POP PUSH1 0x40 DUP8 ADD CALLDATALOAD SWAP2 POP DUP1 DUP3 GT ISZERO PUSH2 0x1521 JUMPI PUSH1 0x0 DUP1 REVERT JUMPDEST PUSH2 0x152D DUP9 DUP4 DUP10 ADD PUSH2 0x1346 JUMP JUMPDEST SWAP4 POP PUSH1 0x60 DUP8 ADD CALLDATALOAD SWAP2 POP DUP1 DUP3 GT ISZERO PUSH2 0x1543 JUMPI PUSH1 0x0 DUP1 REVERT JUMPDEST POP PUSH2 0x1550 DUP8 DUP3 DUP9 ADD PUSH2 0x1346 JUMP JUMPDEST SWAP2 POP POP SWAP3 SWAP6 SWAP2 SWAP5 POP SWAP3 POP JUMP JUMPDEST PUSH1 0x0 DUP1 PUSH1 0x0 PUSH1 0x60 DUP5 DUP7 SUB SLT ISZERO PUSH2 0x1571 JUMPI PUSH1 0x0 DUP1 REVERT JUMPDEST DUP4 CALLDATALOAD PUSH2 0x157C DUP2 PUSH2 0x1222 JUMP JUMPDEST SWAP3 POP PUSH1 0x20 DUP5 ADD CALLDATALOAD SWAP2 POP PUSH1 0x40 DUP5 ADD CALLDATALOAD PUSH2 0x1593 DUP2 PUSH2 0x1222 JUMP JUMPDEST DUP1 SWAP2 POP POP SWAP3 POP SWAP3 POP SWAP3 JUMP JUMPDEST PUSH1 0x0 DUP1 PUSH1 0x0 DUP1 PUSH1 0x80 DUP6 DUP8 SUB SLT ISZERO PUSH2 0x15B4 JUMPI PUSH1 0x0 DUP1 REVERT JUMPDEST DUP5 CALLDATALOAD PUSH2 0x15BF DUP2 PUSH2 0x1222 JUMP JUMPDEST SWAP4 POP PUSH1 0x20 DUP6 ADD CALLDATALOAD SWAP3 POP PUSH1 0x40 DUP6 ADD CALLDATALOAD PUSH2 0x15D6 DUP2 PUSH2 0x1222 JUMP JUMPDEST SWAP4 SWAP7 SWAP3 SWAP6 POP SWAP3 SWAP4 PUSH1 0x60 ADD CALLDATALOAD SWAP3 POP POP JUMP JUMPDEST PUSH1 0x0 DUP1 PUSH1 0x0 DUP1 PUSH1 0x80 DUP6 DUP8 SUB SLT ISZERO PUSH2 0x15FC JUMPI PUSH1 0x0 DUP1 REVERT JUMPDEST DUP5 CALLDATALOAD SWAP4 POP PUSH1 0x20 DUP6 ADD CALLDATALOAD PUSH8 0xFFFFFFFFFFFFFFFF DUP1 DUP3 GT ISZERO PUSH2 0x14FF JUMPI PUSH1 0x0 DUP1 REVERT JUMPDEST PUSH1 0x0 DUP1 PUSH1 0x0 DUP1 PUSH1 0x80 DUP6 DUP8 SUB SLT ISZERO PUSH2 0x1631 JUMPI PUSH1 0x0 DUP1 REVERT JUMPDEST DUP5 CALLDATALOAD SWAP4 POP PUSH1 0x20 DUP6 ADD CALLDATALOAD PUSH2 0x1643 DUP2 PUSH2 0x1222 JUMP JUMPDEST SWAP3 POP PUSH1 0x40 DUP6 ADD CALLDATALOAD SWAP2 POP PUSH1 0x60 DUP6 ADD CALLDATALOAD PUSH2 0x165A DUP2 PUSH2 0x1222 JUMP JUMPDEST SWAP4 SWAP7 SWAP3 SWAP6 POP SWAP1 SWAP4 POP POP JUMP JUMPDEST PUSH32 0x19457468657265756D205369676E6564204D6573736167653A0A333200000000 DUP2 MSTORE PUSH1 0x1C DUP2 ADD SWAP2 SWAP1 SWAP2 MSTORE PUSH1 0x3C ADD SWAP1 JUMP JUMPDEST PUSH4 0x4E487B71 PUSH1 0xE0 SHL PUSH1 0x0 MSTORE PUSH1 0x11 PUSH1 0x4 MSTORE PUSH1 0x24 PUSH1 0x0 REVERT JUMPDEST PUSH1 0x0 PUSH1 0x0 NOT DUP3 EQ ISZERO PUSH2 0x16C0 JUMPI PUSH2 0x16C0 PUSH2 0x1696 JUMP JUMPDEST POP PUSH1 0x1 ADD SWAP1 JUMP JUMPDEST PUSH1 0x20 DUP1 DUP3 MSTORE DUP2 DUP2 ADD MSTORE PUSH32 0x4F776E61626C653A2063616C6C6572206973206E6F7420746865206F776E6572 PUSH1 0x40 DUP3 ADD MSTORE PUSH1 0x60 ADD SWAP1 JUMP JUMPDEST PUSH4 0x4E487B71 PUSH1 0xE0 SHL PUSH1 0x0 MSTORE PUSH1 0x32 PUSH1 0x4 MSTORE PUSH1 0x24 PUSH1 0x0 REVERT JUMPDEST PUSH4 0x4E487B71 PUSH1 0xE0 SHL PUSH1 0x0 MSTORE PUSH1 0x31 PUSH1 0x4 MSTORE PUSH1 0x24 PUSH1 0x0 REVERT JUMPDEST PUSH1 0x0 PUSH1 0x20 DUP3 DUP5 SUB SLT ISZERO PUSH2 0x173A JUMPI PUSH1 0x0 DUP1 REVERT JUMPDEST DUP2 MLOAD PUSH2 0xE9A DUP2 PUSH2 0x1247 JUMP JUMPDEST PUSH1 0x0 DUP3 DUP3 LT ISZERO PUSH2 0x1757 JUMPI PUSH2 0x1757 PUSH2 0x1696 JUMP JUMPDEST POP SUB SWAP1 JUMP JUMPDEST PUSH1 0x0 PUSH1 0x20 DUP3 DUP5 SUB SLT ISZERO PUSH2 0x176E JUMPI PUSH1 0x0 DUP1 REVERT JUMPDEST POP MLOAD SWAP2 SWAP1 POP JUMP JUMPDEST PUSH1 0x0 PUSH1 0x20 DUP3 DUP5 SUB SLT ISZERO PUSH2 0x1787 JUMPI PUSH1 0x0 DUP1 REVERT JUMPDEST DUP2 MLOAD PUSH2 0xE9A DUP2 PUSH2 0x1222 JUMP INVALID LOG2 PUSH5 0x6970667358 0x22 SLT KECCAK256 PUSH6 0x6FFEC705E31C CODECOPY SWAP13 SLOAD PUSH32 0xBE0D6081D1B5DC297A81DB5713E6DF341D96A021C564736F6C634300080C0033 "
        },
        "methodIdentifiers": {
          "addSigner(address,uint8[],bytes32[],bytes32[])": "479e517d",
          "feeDB()": "6b3f599b",
          "isSigner(address)": "7df73e27",
          "isTokenReceived(address,uint256,address,uint256)": "d14f36f1",
          "owner()": "8da5cb5b",
          "quorum()": "1703a018",
          "receiveToken(address,uint256,address,uint256,uint256,bool,address,uint8[],bytes32[],bytes32[])": "15b51058",
          "removeSigner(address,uint8[],bytes32[],bytes32[])": "8053f79c",
          "renounceOwnership()": "715018a6",
          "sendToken(uint256,address,uint256,address)": "b707f841",
          "sendingCounts(address,uint256,address)": "488c3f5e",
          "sendingData(address,uint256,address,uint256)": "4d74ce2e",
          "signerIndex(address)": "1a91a0ab",
          "signers(uint256)": "2079fb9a",
          "signersLength()": "41f684f3",
          "signingNonce()": "82ac4168",
          "token()": "fc0c546a",
          "transferOwnership(address)": "f2fde38b",
          "updateFeeDB(address)": "5ecdf245",
          "updateQuorum(uint256,uint8[],bytes32[],bytes32[])": "779780ea"
        }
      }
    }
  }
}