{
  "_format": "hh-sol-artifact-1",
  "contractName": "FeeDB",
  "sourceName": "contracts/FeeDB.sol",
  "abi": [
    {
      "constant": false,
      "inputs": [
        {
          "name": "nfts",
          "type": "address[]"
        },
        {
          "name": "status",
          "type": "bool[]"
        },
        {
          "name": "discountRates",
          "type": "uint256[]"
        }
      ],
      "name": "updateNFTDiscount",
      "outputs": [],
      "payable": false,
      "stateMutability": "nonpayable",
      "type": "function"
    },
    {
      "constant": false,
      "inputs": [],
      "name": "togglePaysFeeWhenSending",
      "outputs": [],
      "payable": false,
      "stateMutability": "nonpayable",
      "type": "function"
    },
    {
      "constant": true,
      "inputs": [],
      "name": "protocolFeeRecipient",
      "outputs": [
        {
          "name": "",
          "type": "address"
        }
      ],
      "payable": false,
      "stateMutability": "view",
      "type": "function"
    },
    {
      "constant": false,
      "inputs": [],
      "name": "renounceOwnership",
      "outputs": [],
      "payable": false,
      "stateMutability": "nonpayable",
      "type": "function"
    },
    {
      "constant": true,
      "inputs": [],
      "name": "paysFeeWhenSending",
      "outputs": [
        {
          "name": "",
          "type": "bool"
        }
      ],
      "payable": false,
      "stateMutability": "view",
      "type": "function"
    },
    {
      "constant": true,
      "inputs": [
        {
          "name": "",
          "type": "address"
        }
      ],
      "name": "userDiscountRate",
      "outputs": [
        {
          "name": "",
          "type": "uint256"
        }
      ],
      "payable": false,
      "stateMutability": "view",
      "type": "function"
    },
    {
      "constant": true,
      "inputs": [],
      "name": "owner",
      "outputs": [
        {
          "name": "",
          "type": "address"
        }
      ],
      "payable": false,
      "stateMutability": "view",
      "type": "function"
    },
    {
      "constant": true,
      "inputs": [],
      "name": "isOwner",
      "outputs": [
        {
          "name": "",
          "type": "bool"
        }
      ],
      "payable": false,
      "stateMutability": "view",
      "type": "function"
    },
    {
      "constant": true,
      "inputs": [],
      "name": "protocolFee",
      "outputs": [
        {
          "name": "",
          "type": "uint256"
        }
      ],
      "payable": false,
      "stateMutability": "view",
      "type": "function"
    },
    {
      "constant": true,
      "inputs": [
        {
          "name": "",
          "type": "address"
        }
      ],
      "name": "nftDiscount",
      "outputs": [
        {
          "name": "status",
          "type": "bool"
        },
        {
          "name": "discountRate",
          "type": "uint256"
        }
      ],
      "payable": false,
      "stateMutability": "view",
      "type": "function"
    },
    {
      "constant": false,
      "inputs": [
        {
          "name": "users",
          "type": "address[]"
        },
        {
          "name": "discountRates",
          "type": "uint256[]"
        }
      ],
      "name": "setDiscountRate",
      "outputs": [],
      "payable": false,
      "stateMutability": "nonpayable",
      "type": "function"
    },
    {
      "constant": true,
      "inputs": [
        {
          "name": "user",
          "type": "address"
        },
        {
          "name": "amount",
          "type": "uint256"
        },
        {
          "name": "nft",
          "type": "address"
        }
      ],
      "name": "userFee",
      "outputs": [
        {
          "name": "",
          "type": "uint256"
        }
      ],
      "payable": false,
      "stateMutability": "view",
      "type": "function"
    },
    {
      "constant": false,
      "inputs": [
        {
          "name": "newOwner",
          "type": "address"
        }
      ],
      "name": "transferOwnership",
      "outputs": [],
      "payable": false,
      "stateMutability": "nonpayable",
      "type": "function"
    },
    {
      "constant": false,
      "inputs": [
        {
          "name": "newFee",
          "type": "uint256"
        },
        {
          "name": "newRecipient",
          "type": "address"
        }
      ],
      "name": "updateFeeAndRecipient",
      "outputs": [],
      "payable": false,
      "stateMutability": "nonpayable",
      "type": "function"
    },
    {
      "inputs": [
        {
          "name": "_protocolFee",
          "type": "uint256"
        },
        {
          "name": "_protocolFeeRecipient",
          "type": "address"
        },
        {
          "name": "_paysFeeWhenSending",
          "type": "bool"
        }
      ],
      "payable": false,
      "stateMutability": "nonpayable",
      "type": "constructor"
    },
    {
      "anonymous": false,
      "inputs": [
        {
          "indexed": false,
          "name": "newFee",
          "type": "uint256"
        },
        {
          "indexed": false,
          "name": "newRecipient",
          "type": "address"
        }
      ],
      "name": "UpdateFeeAndRecipient",
      "type": "event"
    },
    {
      "anonymous": false,
      "inputs": [
        {
          "indexed": false,
          "name": "newType",
          "type": "bool"
        }
      ],
      "name": "UpdatePaysFeeWhenSending",
      "type": "event"
    },
    {
      "anonymous": false,
      "inputs": [
        {
          "indexed": true,
          "name": "previousOwner",
          "type": "address"
        },
        {
          "indexed": true,
          "name": "newOwner",
          "type": "address"
        }
      ],
      "name": "OwnershipTransferred",
      "type": "event"
    }
  ],
  "bytecode": "0x608060405234801561001057600080fd5b50604051606080610e658339810180604052606081101561003057600080fd5b5080516020820151604092830151600080546001600160a01b031916331780825594519394929391926001600160a01b0316917f8be0079c531659141344cd1fd0a4f28419497f9722a3daafe3b4186f6b6457e0908290a3612710831061009657600080fd5b6001839055600280546001600160a01b0319166001600160a01b038416908117600160a01b60ff02191674010000000000000000000000000000000000000000841515021790915560408051858152602081019290925280517fe8cacb7f13fe3f08cbe7dfb1e7101162c3624a3c122fdd2bbd57bced5e201f369281900390910190a160408051821515815290517f59e8988eb3002ff52d35f187b02a41527f298c862a25db459310d1cdc344ce099181900360200190a1505050610d05806101606000396000f3fe608060405234801561001057600080fd5b50600436106100ea5760003560e01c80638f32d59b1161008c578063de0c1b7611610066578063de0c1b76146102e0578063f257fbcb1461039e578063f2fde38b146103d4578063fdb25a3c146103fa576100ea565b80638f32d59b1461028f578063b0e21e8a14610297578063c3f2fcee1461029f576100ea565b8063715018a6116100c8578063715018a61461022b57806385acea06146102335780638bb81b881461024f5780638da5cb5b14610287576100ea565b80630e53dbc3146100ef57806354b72eda146101ff57806364df049e14610207575b600080fd5b6101fd6004803603606081101561010557600080fd5b810190602081018135600160201b81111561011f57600080fd5b82018360208201111561013157600080fd5b803590602001918460208302840111600160201b8311171561015257600080fd5b919390929091602081019035600160201b81111561016f57600080fd5b82018360208201111561018157600080fd5b803590602001918460208302840111600160201b831117156101a257600080fd5b919390929091602081019035600160201b8111156101bf57600080fd5b8201836020820111156101d157600080fd5b803590602001918460208302840111600160201b831117156101f257600080fd5b509092509050610426565b005b6101fd61054b565b61020f610600565b604080516001600160a01b039092168252519081900360200190f35b6101fd61060f565b61023b6106a3565b604080519115158252519081900360200190f35b6102756004803603602081101561026557600080fd5b50356001600160a01b03166106b3565b60408051918252519081900360200190f35b61020f6106c5565b61023b6106d4565b6102756106e5565b6102c5600480360360208110156102b557600080fd5b50356001600160a01b03166106eb565b60408051921515835260208301919091528051918290030190f35b6101fd600480360360408110156102f657600080fd5b810190602081018135600160201b81111561031057600080fd5b82018360208201111561032257600080fd5b803590602001918460208302840111600160201b8311171561034357600080fd5b919390929091602081019035600160201b81111561036057600080fd5b82018360208201111561037257600080fd5b803590602001918460208302840111600160201b8311171561039357600080fd5b50909250905061070a565b610275600480360360608110156103b457600080fd5b506001600160a01b038135811691602081013591604090910135166107e1565b6101fd600480360360208110156103ea57600080fd5b50356001600160a01b031661095c565b6101fd6004803603604081101561041057600080fd5b50803590602001356001600160a01b03166109b2565b61042e6106d4565b6104705760408051600160e51b62461bcd0281526020600482018190526024820152600080516020610cba833981519152604482015290519081900360640190fd5b84838114801561047f57508082145b61048857600080fd5b60005b81811015610541576127108484838181106104a257fe5b9050602002013511156104b457600080fd5b60405180604001604052808787848181106104cb57fe5b905060200201351515151581526020018585848181106104e757fe5b90506020020135815250600460008a8a8581811061050157fe5b602090810292909201356001600160a01b0316835250818101929092526040016000208251815460ff19169015151781559101516001918201550161048b565b5050505050505050565b6105536106d4565b6105955760408051600160e51b62461bcd0281526020600482018190526024820152600080516020610cba833981519152604482015290519081900360640190fd5b6002805474ff0000000000000000000000000000000000000000198116600160a01b9182900460ff1680159283029190911790925560408051918252517f59e8988eb3002ff52d35f187b02a41527f298c862a25db459310d1cdc344ce09916020908290030190a150565b6002546001600160a01b031681565b6106176106d4565b6106595760408051600160e51b62461bcd0281526020600482018190526024820152600080516020610cba833981519152604482015290519081900360640190fd5b600080546040516001600160a01b03909116907f8be0079c531659141344cd1fd0a4f28419497f9722a3daafe3b4186f6b6457e0908390a3600080546001600160a01b0319169055565b600254600160a01b900460ff1681565b60036020526000908152604090205481565b6000546001600160a01b031690565b6000546001600160a01b0316331490565b60015481565b6004602052600090815260409020805460019091015460ff9091169082565b6107126106d4565b6107545760408051600160e51b62461bcd0281526020600482018190526024820152600080516020610cba833981519152604482015290519081900360640190fd5b82811461076057600080fd5b60005b838110156107da5761271083838381811061077a57fe5b90506020020135111561078c57600080fd5b82828281811061079857fe5b90506020020135600360008787858181106107af57fe5b602090810292909201356001600160a01b031683525081019190915260400160002055600101610763565b5050505050565b600154600090806107f6576000915050610955565b6001600160a01b03808616600090815260036020526040812054918516156108fa57610820610c5b565b506001600160a01b0385166000908152600460209081526040918290208251808401909352805460ff1615158084526001909101549183019190915261086557600080fd5b6000866001600160a01b03166370a082318a6040518263ffffffff1660e01b815260040180826001600160a01b03166001600160a01b0316815260200191505060206040518083038186803b1580156108bd57600080fd5b505afa1580156108d1573d6000803e3d6000fd5b505050506040513d60208110156108e757600080fd5b5051116108f357600080fd5b6020015190505b6000818311610909578161090b565b825b905061094e6127106109356109416127106109358661271003600154610a6c90919063ffffffff16565b9063ffffffff610ad116565b8a9063ffffffff610a6c16565b9450505050505b9392505050565b6109646106d4565b6109a65760408051600160e51b62461bcd0281526020600482018190526024820152600080516020610cba833981519152604482015290519081900360640190fd5b6109af81610b13565b50565b6109ba6106d4565b6109fc5760408051600160e51b62461bcd0281526020600482018190526024820152600080516020610cba833981519152604482015290519081900360640190fd5b6127108210610a0a57600080fd5b6001829055600280546001600160a01b0319166001600160a01b03831690811790915560408051848152602081019290925280517fe8cacb7f13fe3f08cbe7dfb1e7101162c3624a3c122fdd2bbd57bced5e201f369281900390910190a15050565b600082610a7b57506000610acb565b82820282848281610a8857fe5b0414610ac857604051600160e51b62461bcd028152600401808060200182810382526021815260200180610c996021913960400191505060405180910390fd5b90505b92915050565b6000610ac883836040518060400160405280601a81526020017f536166654d6174683a206469766973696f6e206279207a65726f000000000000815250610bb6565b6001600160a01b038116610b5b57604051600160e51b62461bcd028152600401808060200182810382526026815260200180610c736026913960400191505060405180910390fd5b600080546040516001600160a01b03808516939216917f8be0079c531659141344cd1fd0a4f28419497f9722a3daafe3b4186f6b6457e091a3600080546001600160a01b0319166001600160a01b0392909216919091179055565b60008183610c4557604051600160e51b62461bcd0281526004018080602001828103825283818151815260200191508051906020019080838360005b83811015610c0a578181015183820152602001610bf2565b50505050905090810190601f168015610c375780820380516001836020036101000a031916815260200191505b509250505060405180910390fd5b506000838581610c5157fe5b0495945050505050565b60408051808201909152600080825260208201529056fe4f776e61626c653a206e6577206f776e657220697320746865207a65726f2061646472657373536166654d6174683a206d756c7469706c69636174696f6e206f766572666c6f774f776e61626c653a2063616c6c6572206973206e6f7420746865206f776e6572a165627a7a723058204c1bf2b2a319b764a94b70c12d5e259da27dd717b89490bdca49a88e5fc9291c0029",
  "linkReferences": {},
  "deployedLinkReferences": {}
}