{
  "_format": "hh-sol-artifact-1",
  "contractName": "APMReservoir",
  "sourceName": "contracts/APMReservoir.sol",
  "abi": [
    {
      "inputs": [
        {
          "internalType": "contract IERC20",
          "name": "_token",
          "type": "address"
        },
        {
          "internalType": "uint256",
          "name": "_quorum",
          "type": "uint256"
        },
        {
          "internalType": "address[]",
          "name": "_signers",
          "type": "address[]"
        }
      ],
      "stateMutability": "nonpayable",
      "type": "constructor"
    },
    {
      "anonymous": false,
      "inputs": [
        {
          "indexed": false,
          "internalType": "address",
          "name": "signer",
          "type": "address"
        }
      ],
      "name": "AddSigner",
      "type": "event"
    },
    {
      "anonymous": false,
      "inputs": [
        {
          "indexed": true,
          "internalType": "address",
          "name": "previousOwner",
          "type": "address"
        },
        {
          "indexed": true,
          "internalType": "address",
          "name": "newOwner",
          "type": "address"
        }
      ],
      "name": "OwnershipTransferred",
      "type": "event"
    },
    {
      "anonymous": false,
      "inputs": [
        {
          "indexed": true,
          "internalType": "address",
          "name": "sender",
          "type": "address"
        },
        {
          "indexed": true,
          "internalType": "uint256",
          "name": "fromChainId",
          "type": "uint256"
        },
        {
          "indexed": true,
          "internalType": "address",
          "name": "receiver",
          "type": "address"
        },
        {
          "indexed": false,
          "internalType": "uint256",
          "name": "amount",
          "type": "uint256"
        },
        {
          "indexed": false,
          "internalType": "uint256",
          "name": "sendingId",
          "type": "uint256"
        }
      ],
      "name": "ReceiveToken",
      "type": "event"
    },
    {
      "anonymous": false,
      "inputs": [
        {
          "indexed": false,
          "internalType": "address",
          "name": "signer",
          "type": "address"
        }
      ],
      "name": "RemoveSigner",
      "type": "event"
    },
    {
      "anonymous": false,
      "inputs": [
        {
          "indexed": true,
          "internalType": "address",
          "name": "sender",
          "type": "address"
        },
        {
          "indexed": true,
          "internalType": "uint256",
          "name": "toChainId",
          "type": "uint256"
        },
        {
          "indexed": true,
          "internalType": "address",
          "name": "receiver",
          "type": "address"
        },
        {
          "indexed": false,
          "internalType": "uint256",
          "name": "amount",
          "type": "uint256"
        },
        {
          "indexed": false,
          "internalType": "uint256",
          "name": "sendingId",
          "type": "uint256"
        },
        {
          "indexed": false,
          "internalType": "bool",
          "name": "isFeeCollected",
          "type": "bool"
        }
      ],
      "name": "SendToken",
      "type": "event"
    },
    {
      "anonymous": false,
      "inputs": [
        {
          "indexed": false,
          "internalType": "contract IFeeDB",
          "name": "newFeeDB",
          "type": "address"
        }
      ],
      "name": "UpdateFeeDB",
      "type": "event"
    },
    {
      "anonymous": false,
      "inputs": [
        {
          "indexed": false,
          "internalType": "uint256",
          "name": "newQuorum",
          "type": "uint256"
        }
      ],
      "name": "UpdateQuorum",
      "type": "event"
    },
    {
      "inputs": [
        {
          "internalType": "address",
          "name": "signer",
          "type": "address"
        },
        {
          "internalType": "uint8[]",
          "name": "vs",
          "type": "uint8[]"
        },
        {
          "internalType": "bytes32[]",
          "name": "rs",
          "type": "bytes32[]"
        },
        {
          "internalType": "bytes32[]",
          "name": "ss",
          "type": "bytes32[]"
        }
      ],
      "name": "addSigner",
      "outputs": [],
      "stateMutability": "nonpayable",
      "type": "function"
    },
    {
      "inputs": [],
      "name": "feeDB",
      "outputs": [
        {
          "internalType": "contract IFeeDB",
          "name": "",
          "type": "address"
        }
      ],
      "stateMutability": "view",
      "type": "function"
    },
    {
      "inputs": [
        {
          "internalType": "address",
          "name": "signer",
          "type": "address"
        }
      ],
      "name": "isSigner",
      "outputs": [
        {
          "internalType": "bool",
          "name": "",
          "type": "bool"
        }
      ],
      "stateMutability": "view",
      "type": "function"
    },
    {
      "inputs": [
        {
          "internalType": "address",
          "name": "",
          "type": "address"
        },
        {
          "internalType": "uint256",
          "name": "",
          "type": "uint256"
        },
        {
          "internalType": "address",
          "name": "",
          "type": "address"
        },
        {
          "internalType": "uint256",
          "name": "",
          "type": "uint256"
        }
      ],
      "name": "isTokenReceived",
      "outputs": [
        {
          "internalType": "bool",
          "name": "",
          "type": "bool"
        }
      ],
      "stateMutability": "view",
      "type": "function"
    },
    {
      "inputs": [],
      "name": "owner",
      "outputs": [
        {
          "internalType": "address",
          "name": "",
          "type": "address"
        }
      ],
      "stateMutability": "view",
      "type": "function"
    },
    {
      "inputs": [],
      "name": "quorum",
      "outputs": [
        {
          "internalType": "uint256",
          "name": "",
          "type": "uint256"
        }
      ],
      "stateMutability": "view",
      "type": "function"
    },
    {
      "inputs": [
        {
          "internalType": "address",
          "name": "sender",
          "type": "address"
        },
        {
          "internalType": "uint256",
          "name": "fromChainId",
          "type": "uint256"
        },
        {
          "internalType": "address",
          "name": "receiver",
          "type": "address"
        },
        {
          "internalType": "uint256",
          "name": "amount",
          "type": "uint256"
        },
        {
          "internalType": "uint256",
          "name": "sendingId",
          "type": "uint256"
        },
        {
          "internalType": "bool",
          "name": "isFeePayed",
          "type": "bool"
        },
        {
          "internalType": "uint8[]",
          "name": "vs",
          "type": "uint8[]"
        },
        {
          "internalType": "bytes32[]",
          "name": "rs",
          "type": "bytes32[]"
        },
        {
          "internalType": "bytes32[]",
          "name": "ss",
          "type": "bytes32[]"
        }
      ],
      "name": "receiveToken",
      "outputs": [],
      "stateMutability": "nonpayable",
      "type": "function"
    },
    {
      "inputs": [
        {
          "internalType": "address",
          "name": "signer",
          "type": "address"
        },
        {
          "internalType": "uint8[]",
          "name": "vs",
          "type": "uint8[]"
        },
        {
          "internalType": "bytes32[]",
          "name": "rs",
          "type": "bytes32[]"
        },
        {
          "internalType": "bytes32[]",
          "name": "ss",
          "type": "bytes32[]"
        }
      ],
      "name": "removeSigner",
      "outputs": [],
      "stateMutability": "nonpayable",
      "type": "function"
    },
    {
      "inputs": [],
      "name": "renounceOwnership",
      "outputs": [],
      "stateMutability": "nonpayable",
      "type": "function"
    },
    {
      "inputs": [
        {
          "internalType": "uint256",
          "name": "toChainId",
          "type": "uint256"
        },
        {
          "internalType": "address",
          "name": "receiver",
          "type": "address"
        },
        {
          "internalType": "uint256",
          "name": "amount",
          "type": "uint256"
        }
      ],
      "name": "sendToken",
      "outputs": [
        {
          "internalType": "uint256",
          "name": "sendingId",
          "type": "uint256"
        }
      ],
      "stateMutability": "nonpayable",
      "type": "function"
    },
    {
      "inputs": [
        {
          "internalType": "address",
          "name": "",
          "type": "address"
        },
        {
          "internalType": "uint256",
          "name": "",
          "type": "uint256"
        },
        {
          "internalType": "address",
          "name": "",
          "type": "address"
        },
        {
          "internalType": "uint256",
          "name": "",
          "type": "uint256"
        }
      ],
      "name": "sendedAmounts",
      "outputs": [
        {
          "internalType": "uint256",
          "name": "",
          "type": "uint256"
        }
      ],
      "stateMutability": "view",
      "type": "function"
    },
    {
      "inputs": [
        {
          "internalType": "address",
          "name": "sender",
          "type": "address"
        },
        {
          "internalType": "uint256",
          "name": "toChainId",
          "type": "uint256"
        },
        {
          "internalType": "address",
          "name": "receiver",
          "type": "address"
        }
      ],
      "name": "sendingCounts",
      "outputs": [
        {
          "internalType": "uint256",
          "name": "",
          "type": "uint256"
        }
      ],
      "stateMutability": "view",
      "type": "function"
    },
    {
      "inputs": [
        {
          "internalType": "address",
          "name": "",
          "type": "address"
        }
      ],
      "name": "signerIndex",
      "outputs": [
        {
          "internalType": "uint256",
          "name": "",
          "type": "uint256"
        }
      ],
      "stateMutability": "view",
      "type": "function"
    },
    {
      "inputs": [
        {
          "internalType": "uint256",
          "name": "",
          "type": "uint256"
        }
      ],
      "name": "signers",
      "outputs": [
        {
          "internalType": "address",
          "name": "",
          "type": "address"
        }
      ],
      "stateMutability": "view",
      "type": "function"
    },
    {
      "inputs": [],
      "name": "signersLength",
      "outputs": [
        {
          "internalType": "uint256",
          "name": "",
          "type": "uint256"
        }
      ],
      "stateMutability": "view",
      "type": "function"
    },
    {
      "inputs": [],
      "name": "signingNonce",
      "outputs": [
        {
          "internalType": "uint256",
          "name": "",
          "type": "uint256"
        }
      ],
      "stateMutability": "view",
      "type": "function"
    },
    {
      "inputs": [],
      "name": "token",
      "outputs": [
        {
          "internalType": "contract IERC20",
          "name": "",
          "type": "address"
        }
      ],
      "stateMutability": "view",
      "type": "function"
    },
    {
      "inputs": [
        {
          "internalType": "address",
          "name": "newOwner",
          "type": "address"
        }
      ],
      "name": "transferOwnership",
      "outputs": [],
      "stateMutability": "nonpayable",
      "type": "function"
    },
    {
      "inputs": [
        {
          "internalType": "contract IFeeDB",
          "name": "newDB",
          "type": "address"
        }
      ],
      "name": "updateFeeDB",
      "outputs": [],
      "stateMutability": "nonpayable",
      "type": "function"
    },
    {
      "inputs": [
        {
          "internalType": "uint256",
          "name": "newQuorum",
          "type": "uint256"
        },
        {
          "internalType": "uint8[]",
          "name": "vs",
          "type": "uint8[]"
        },
        {
          "internalType": "bytes32[]",
          "name": "rs",
          "type": "bytes32[]"
        },
        {
          "internalType": "bytes32[]",
          "name": "ss",
          "type": "bytes32[]"
        }
      ],
      "name": "updateQuorum",
      "outputs": [],
      "stateMutability": "nonpayable",
      "type": "function"
    }
  ],
  "bytecode": "0x60806040523480156200001157600080fd5b5060405162001ba438038062001ba483398101604081905262000034916200030e565b6200003f33620001fc565b6001600160a01b0383166200005357600080fd5b600680546001600160a01b0319166001600160a01b038516179055816200007957600080fd5b60048290556040518281527f5cb3f38de4dd795897ed02809e482378027c600f566d6e4bd14dfe3a44a6d7379060200160405180910390a18181511015620000c057600080fd5b8051620000d59060019060208401906200024c565b5060005b8151811015620001f2576000828281518110620000fa57620000fa62000402565b6020026020010151905060006001600160a01b0316816001600160a01b031614156200012557600080fd5b6001600160a01b038116600090815260026020526040902054156200014957600080fd5b81156200018d578260008151811062000166576200016662000402565b60200260200101516001600160a01b0316816001600160a01b031614156200018d57600080fd5b6001600160a01b03811660008181526002602090815260409182902085905590519182527f637c77a2d598a51d085d4a2413332c45a235a25ee855bf3dfcdc2c8fcf02860f910160405180910390a15080620001e98162000418565b915050620000d9565b5050505062000442565b600080546001600160a01b038381166001600160a01b0319831681178455604051919092169283917f8be0079c531659141344cd1fd0a4f28419497f9722a3daafe3b4186f6b6457e09190a35050565b828054828255906000526020600020908101928215620002a4579160200282015b82811115620002a457825182546001600160a01b0319166001600160a01b039091161782556020909201916001909101906200026d565b50620002b2929150620002b6565b5090565b5b80821115620002b25760008155600101620002b7565b6001600160a01b0381168114620002e357600080fd5b50565b634e487b7160e01b600052604160045260246000fd5b80516200030981620002cd565b919050565b6000806000606084860312156200032457600080fd5b83516200033181620002cd565b60208581015160408701519295509350906001600160401b03808211156200035857600080fd5b818701915087601f8301126200036d57600080fd5b815181811115620003825762000382620002e6565b8060051b604051601f19603f83011681018181108582111715620003aa57620003aa620002e6565b60405291825284820192508381018501918a831115620003c957600080fd5b938501935b82851015620003f257620003e285620002fc565b84529385019392850192620003ce565b8096505050505050509250925092565b634e487b7160e01b600052603260045260246000fd5b60006000198214156200043b57634e487b7160e01b600052601160045260246000fd5b5060010190565b61175280620004526000396000f3fe608060405234801561001057600080fd5b506004361061012c5760003560e01c80637df73e27116100ad578063c7fbad4311610071578063c7fbad431461029a578063d14f36f1146102ad578063dc8e1d4f146102ea578063f2fde38b146102fd578063fc0c546a1461031057600080fd5b80637df73e27146102375780638053f79c1461025a57806382ac41681461026d5780638da5cb5b146102765780639d8952221461028757600080fd5b8063488c3f5e116100f4578063488c3f5e146101b55780635ecdf245146101f65780636b3f599b14610209578063715018a61461021c578063779780ea1461022457600080fd5b80631703a018146101315780631a91a0ab1461014d5780632079fb9a1461016d57806341f684f314610198578063479e517d146101a0575b600080fd5b61013a60045481565b6040519081526020015b60405180910390f35b61013a61015b3660046111f5565b60026020526000908152604090205481565b61018061017b366004611212565b610323565b6040516001600160a01b039091168152602001610144565b60015461013a565b6101b36101ae36600461136c565b61034d565b005b61013a6101c3366004611407565b6001600160a01b039283166000908152600760209081526040808320948352938152838220929094168152925290205490565b6101b36102043660046111f5565b610497565b600554610180906001600160a01b031681565b6101b361051e565b6101b3610232366004611449565b610554565b61024a6102453660046111f5565b610625565b6040519015158152602001610144565b6101b361026836600461136c565b610681565b61013a60035481565b6000546001600160a01b0316610180565b6101b3610295366004611497565b610886565b61013a6102a836600461156f565b610a14565b61024a6102bb3660046115a7565b600860209081526000948552604080862082529385528385208152918452828420909152825290205460ff1681565b61013a6102f83660046115a7565b610b1c565b6101b361030b3660046111f5565b610b67565b600654610180906001600160a01b031681565b6001818154811061033357600080fd5b6000918252602090912001546001600160a01b0316905081565b6001600160a01b03841661036057600080fd5b61036984610625565b1561037357600080fd5b600380546000914691908361038783611605565b909155506040516830b23229b4b3b732b960b91b6020820152602981019290925260498201526069016040516020818303038152906040528051906020012090506000816040516020016103db9190611620565b6040516020818303038152906040528051906020012090506103ff81868686610c02565b600180546001600160a01b03881660008181526002602090815260408083208590558486018655949091527fb10e2d527612073b26eecdfd717e6a320cf44b4afac2b0732d9fcbe2b7fa0cf690920180546001600160a01b0319168217905591519182527f637c77a2d598a51d085d4a2413332c45a235a25ee855bf3dfcdc2c8fcf02860f91015b60405180910390a1505050505050565b6000546001600160a01b031633146104ca5760405162461bcd60e51b81526004016104c190611651565b60405180910390fd5b600580546001600160a01b0319166001600160a01b0383169081179091556040519081527fa9833f88e240d8eb1b2a6dbaf83b80884401ce7f7a972a9352538d966e1ba6279060200160405180910390a150565b6000546001600160a01b031633146105485760405162461bcd60e51b81526004016104c190611651565b6105526000610cb4565b565b6000841161056157600080fd5b600380546000914691908361057583611605565b909155506040516b75706461746551756f72756d60a01b6020820152602c810192909252604c820152606c016040516020818303038152906040528051906020012090506000816040516020016105cc9190611620565b6040516020818303038152906040528051906020012090506105f081868686610c02565b60048690556040518681527f5cb3f38de4dd795897ed02809e482378027c600f566d6e4bd14dfe3a44a6d73790602001610487565b6001600160a01b03811660009081526002602052604081205415158061067b5750816001600160a01b0316600160008154811061066457610664611686565b6000918252602090912001546001600160a01b0316145b92915050565b6001600160a01b03841661069457600080fd5b61069d84610625565b6106a657600080fd5b60038054600091469190836106ba83611605565b909155506040516b3932b6b7bb32a9b4b3b732b960a11b6020820152602c810192909252604c820152606c016040516020818303038152906040528051906020012090506000816040516020016107119190611620565b60405160208183030381529060405280519060200120905061073581868686610c02565b600061074b600161074560015490565b90610d04565b905060045481101561075c57600080fd5b6001600160a01b0387166000908152600260205260409020548181146107fb5760006001838154811061079157610791611686565b600091825260209091200154600180546001600160a01b0390921692508291849081106107c0576107c0611686565b600091825260208083209190910180546001600160a01b0319166001600160a01b039485161790559290911681526002909152604090208190555b600180548061080c5761080c61169c565b60008281526020808220600019908401810180546001600160a01b03191690559092019092556001600160a01b038a168083526002825260408084209390935591519182527f1803740ef72fc16e647c10fe2d31cf61a1578081960c2e3fb7f5aa957e82f550910160405180910390a15050505050505050565b6001600160a01b03808a1660009081526008602090815260408083208c84528252808320938b1683529281528282208883529052205460ff16156108c957600080fd5b6040805160208082018b90526bffffffffffffffffffffffff1960608d811b8216848601524660548501528b901b1660748301526088820189905260a8820188905286151560f81b60c8830152825180830360a901815260c9830190935282519201919091209060009061094190839060e901611620565b60405160208183030381529060405280519060200120905061096581868686610c02565b6001600160a01b03808c1660009081526008602090815260408083208e84528252808320938d1683529281528282208a8352905220805460ff191660011790556109b0898988610d17565b886001600160a01b03168a8c6001600160a01b03167fda4355117ec65be2104e66a73b0d7e9de15423bd5e7d494d50539dd066d0fbde8b8b6040516109ff929190918252602082015260400190565b60405180910390a45050505050505050505050565b33600090815260076020908152604080832086845282528083206001600160a01b0386811685529083528184208054600181018255908552838520810186905560055483516342d6750360e11b815293519195949216926385acea069260048083019391928290030181865afa158015610a92573d6000803e3d6000fd5b505050506040513d601f19601f82011682018060405250810190610ab691906116b2565b9050610ac3338483610e59565b60408051848152602081018490528215158183015290516001600160a01b03861691879133917fec47c11127a4fc4eea1866690010369bc0f14d7c82e42c7590841f88440d569f919081900360600190a4509392505050565b60076020528360005260406000206020528260005260406000206020528160005260406000208181548110610b5057600080fd5b906000526020600020016000935093505050505481565b6000546001600160a01b03163314610b915760405162461bcd60e51b81526004016104c190611651565b6001600160a01b038116610bf65760405162461bcd60e51b815260206004820152602660248201527f4f776e61626c653a206e6577206f776e657220697320746865207a65726f206160448201526564647265737360d01b60648201526084016104c1565b610bff81610cb4565b50565b8251825181148015610c145750815181145b610c1d57600080fd5b600454811015610c2c57600080fd5b60005b81811015610cac57610c9161024587878481518110610c5057610c50611686565b6020026020010151878581518110610c6a57610c6a611686565b6020026020010151878681518110610c8457610c84611686565b6020026020010151610f50565b610c9a57600080fd5b80610ca481611605565b915050610c2f565b505050505050565b600080546001600160a01b038381166001600160a01b0319831681178455604051919092169283917f8be0079c531659141344cd1fd0a4f28419497f9722a3daafe3b4186f6b6457e09190a35050565b6000610d1082846116cf565b9392505050565b600081610dc6576000610d2a85856110d5565b90925090508115801590610d4657506001600160a01b03811615155b15610dc45760065460405163a9059cbb60e01b81526001600160a01b038381166004830152602482018590529091169063a9059cbb906044016020604051808303816000875af1158015610d9e573d6000803e3d6000fd5b505050506040513d601f19601f82011682018060405250810190610dc291906116b2565b505b505b6006546001600160a01b031663a9059cbb85610de28685610d04565b6040516001600160e01b031960e085901b1681526001600160a01b03909216600483015260248201526044015b6020604051808303816000875af1158015610e2e573d6000803e3d6000fd5b505050506040513d601f19601f82011682018060405250810190610e5291906116b2565b5050505050565b60008115610f11576000610e6d85856110d5565b90925090508115801590610e8957506001600160a01b03811615155b15610f0f576006546040516323b872dd60e01b81526001600160a01b038781166004830152838116602483015260448201859052909116906323b872dd906064016020604051808303816000875af1158015610ee9573d6000803e3d6000fd5b505050506040513d601f19601f82011682018060405250810190610f0d91906116b2565b505b505b6006546040516323b872dd60e01b81526001600160a01b03868116600483015230602483015260448201869052909116906323b872dd90606401610e0f565b60007f7fffffffffffffffffffffffffffffff5d576e7357a4501ddfe92f46681b20a0821115610fc25760405162461bcd60e51b815260206004820152601b60248201527f696e76616c6964207369676e6174757265202773272076616c7565000000000060448201526064016104c1565b8360ff16601b1480610fd757508360ff16601c145b6110235760405162461bcd60e51b815260206004820152601b60248201527f696e76616c6964207369676e6174757265202776272076616c7565000000000060448201526064016104c1565b60408051600081526020810180835287905260ff861691810191909152606081018490526080810183905260019060a0016020604051602081039080840390855afa158015611076573d6000803e3d6000fd5b5050604051601f1901519150506001600160a01b0381166110cd5760405162461bcd60e51b8152602060048201526011602482015270696e76616c6964207369676e617475726560781b60448201526064016104c1565b949350505050565b60055460405163ba1ec16b60e01b81526001600160a01b03848116600483015260248201849052600092839291169063ba1ec16b90604401602060405180830381865afa15801561112a573d6000803e3d6000fd5b505050506040513d601f19601f8201168201806040525081019061114e91906116e6565b9150600560009054906101000a90046001600160a01b03166001600160a01b03166364df049e6040518163ffffffff1660e01b8152600401602060405180830381865afa1580156111a3573d6000803e3d6000fd5b505050506040513d601f19601f820116820180604052508101906111c791906116ff565b90509250929050565b6001600160a01b0381168114610bff57600080fd5b80356111f0816111d0565b919050565b60006020828403121561120757600080fd5b8135610d10816111d0565b60006020828403121561122457600080fd5b5035919050565b634e487b7160e01b600052604160045260246000fd5b604051601f8201601f1916810167ffffffffffffffff8111828210171561126a5761126a61122b565b604052919050565b600067ffffffffffffffff82111561128c5761128c61122b565b5060051b60200190565b600082601f8301126112a757600080fd5b813560206112bc6112b783611272565b611241565b82815260059290921b840181019181810190868411156112db57600080fd5b8286015b8481101561130657803560ff811681146112f95760008081fd5b83529183019183016112df565b509695505050505050565b600082601f83011261132257600080fd5b813560206113326112b783611272565b82815260059290921b8401810191818101908684111561135157600080fd5b8286015b848110156113065780358352918301918301611355565b6000806000806080858703121561138257600080fd5b843561138d816111d0565b9350602085013567ffffffffffffffff808211156113aa57600080fd5b6113b688838901611296565b945060408701359150808211156113cc57600080fd5b6113d888838901611311565b935060608701359150808211156113ee57600080fd5b506113fb87828801611311565b91505092959194509250565b60008060006060848603121561141c57600080fd5b8335611427816111d0565b925060208401359150604084013561143e816111d0565b809150509250925092565b6000806000806080858703121561145f57600080fd5b84359350602085013567ffffffffffffffff808211156113aa57600080fd5b8015158114610bff57600080fd5b80356111f08161147e565b60008060008060008060008060006101208a8c0312156114b657600080fd5b6114bf8a6111e5565b985060208a013597506114d460408b016111e5565b965060608a0135955060808a013594506114f060a08b0161148c565b935060c08a013567ffffffffffffffff8082111561150d57600080fd5b6115198d838e01611296565b945060e08c013591508082111561152f57600080fd5b61153b8d838e01611311565b93506101008c013591508082111561155257600080fd5b5061155f8c828d01611311565b9150509295985092959850929598565b60008060006060848603121561158457600080fd5b833592506020840135611596816111d0565b929592945050506040919091013590565b600080600080608085870312156115bd57600080fd5b84356115c8816111d0565b93506020850135925060408501356115df816111d0565b9396929550929360600135925050565b634e487b7160e01b600052601160045260246000fd5b6000600019821415611619576116196115ef565b5060010190565b7f19457468657265756d205369676e6564204d6573736167653a0a3332000000008152601c810191909152603c0190565b6020808252818101527f4f776e61626c653a2063616c6c6572206973206e6f7420746865206f776e6572604082015260600190565b634e487b7160e01b600052603260045260246000fd5b634e487b7160e01b600052603160045260246000fd5b6000602082840312156116c457600080fd5b8151610d108161147e565b6000828210156116e1576116e16115ef565b500390565b6000602082840312156116f857600080fd5b5051919050565b60006020828403121561171157600080fd5b8151610d10816111d056fea26469706673582212208a0ff9727c1d7969f93d92cbc93bada7fbf1bcf14fa9f7a28c5280fc92e88f6864736f6c634300080c0033",
  "linkReferences": {},
  "deployedLinkReferences": {}
}